:020000040800F2
:10000000C8430020CD020008815300083D49000884
:10001000F55000087D2A0008B564000800000000C3
:100020000000000000000000000000003502000891
:100030002B2C00080000000079020008655600081B
:10004000E7020008E7020008E7020008E7020008EC
:10005000E7020008E7020008E7020008E7020008DC
:10006000E7020008E7020008E7020008B92B0008D1
:10007000C52B0008D12B0008DD2B0008E702000883
:10008000E92B0008F52B0008E7020008E70200084A
:10009000E7020008E7020008E7020008E70200089C
:1000A000E7020008E7020008E7020008E70200088C
:1000B000B9590008C5590008E7020008E70200081E
:1000C000E7020008E7020008E7020008E70200086C
:1000D000E7020008916400089D640008A964000814
:1000E000E7020008E7020008E702000800F002F853
:1000F00000F090F80AA090E8000C82448344AAF132
:100100000107DA4501D100F085F8AFF2090EBAE82F
:100110000F0013F0010F18BFFB1A43F0010318473B
:1001200094870000B4870000103A24BF78C878C1D3
:10013000FAD8520724BF30C830C144BF04680C60ED
:10014000704700000023002400250026103A28BF35
:1001500078C1FBD8520728BF30C148BF0B60704739
:100160006E2900F05182702900F09B83662908F007
:100170008C81652908F08981672908F086816129C9
:1001800008F0858103681B0A28BF41F080016929B6
:1001900000F0FE81642900F0FB81752900F0F881F0
:1001A0006F2900F02883782900F06783E92900F09F
:1001B000C382E42900F0C082F52900F0BD82EF2956
:1001C00000F02583F82900F066830368DB0928BF67
:1001D00041F08001632901F09F80732901F0A48020
:1001E000E32901F0AF80F32901F0B48000207047CB
:1001F0001FB501F005F904000020002107F07CFE86
:10020000401C60600020002107F060FEE0601FBD20
:1002100010B510BD01F0C6F81146FFF7E9FF06F072
:100220004BFA01F0A3F903B4FFF7F2FF03BC06F0A9
:1002300079F90000224B19680868B0E8F00F80F3E4
:100240000988BFF36F8F4FF0000080F311884EF0E4
:100250000D0E70470000000006480068006880F33B
:10026000088862B661B6BFF34F8FBFF36F8F00DFB0
:1002700000BF00BF08ED00E0EFF30980BFF36F8F10
:100280000F4B1A6820E9F00F106008B54FF05000CE
:1002900080F31188BFF34F8FBFF36F8F07F0FAF829
:1002A0004FF0000080F31188BDE808401968086825
:1002B000B0E8F00F80F30988BFF36F8F704700BF7D
:1002C00020000020EFF305807047000009488047B8
:1002D00009480047FEE7FEE7FEE7FEE7FEE7FEE728
:1002E000FEE7FEE7FEE7FEE704480549054A064B40
:1002F00070470000F7560008ED000008C83D0020D8
:10030000C8430020C83F0020C83F002070470000BD
:100310007CB51D4616460C00009001D02044401EBE
:10032000074B7B442A4669460190304600F085F928
:1003300005461CB10020694600F092F928467CBDB4
:100340004503000010B5431C02E010F8011B71B119
:100350008107FAD14FF0013202C88C1A8C4314EA9B
:10036000C211F9D0C01A0A0603D0C01E10BDC01AAF
:1003700010BD0A0401D0801E10BD0902FCD0401E31
:1003800010BD032A40F2308010F0030C00F01580FD
:1003900011F8013BBCF1020F624498BF11F801CB88
:1003A00000F8013B38BF11F8013BA2F1040298BFED
:1003B00000F801CB38BF00F8013B11F0030300F057
:1003C0003F83083AC0F0088051F8043B083A51F8DE
:1003D00004CBA0E80810F5E7121D5CBF51F8043B00
:1003E00040F8043BAFF30080D20724BF11F8013B73
:1003F00011F801CB48BF11F8012B24BF00F8013BD5
:1004000000F801CB48BF00F8012B704702F0FF0352
:1004100043EA032242EA024200F002B84FF000022F
:100420000429C0F0128010F0030C00F01B80CCF106
:10043000040CBCF1020F18BF00F8012BA8BF20F874
:10044000022BA1EB0C0100F00DB85FEAC17C24BFC8
:1004500000F8012B00F8012B48BF00F8012B704772
:100460004FF0000200B5134694469646203922BF4D
:10047000A0E80C50A0E80C50B1F12001BFF4F7AF98
:10048000090728BFA0E80C5048BF0CC05DF804EB7A
:10049000890028BF40F8042B08BF704748BF20F8E8
:1004A000022B11F0804F18BF00F8012B70477047E6
:1004B00070477047704710B500F0F4FA006810BD3F
:1004C00010B5044600F0EEFA046010BD70B50446A5
:1004D00085690068C10601D5302600E02026C007E6
:1004E00007D070BDD4E9012130469047206A401CF6
:1004F00020626D1EF6D570BD70B504468569007822
:10050000C00707D170BDD4E9012120209047206A9F
:10051000401C20626D1EF6D570BD09684A0501D5E4
:1005200040B27047C905FCD500B2704709684A055A
:1005300001D5C0B27047C905FCD580B2704770B50F
:100540000C460546012A05D02878800600D5EA69C0
:10055000002302E0012305E05B1C934202D2E05C31
:100560000028F9D1A869E618C01AA861286A1844B9
:1005700028622846FFF7AAFF04E0D5E9012114F814
:10058000010B9047B442F8D32846FFF7B5FF70BD82
:100590002DE9F0410646002410687529314616A55C
:1005A00010D0FFF7BAFF002802DA404213A507E097
:1005B00031688A0701D512A502E0490704D511A5C3
:1005C000012401E0FFF7B2FF00210A2206F124070F
:1005D00009E0B0FBF2FCB0FBF2F302FB1C00303090
:1005E00078541846491C0028F3D123462A46304641
:1005F000BDE8F04100F09FBA000000002D000000AF
:100600002B0000002000000011680268006A5305FA
:1006100001D508700AE0D30501D5088006E013066D
:1006200003D5C217C1E9000200E00860012070474D
:1006300001694A1C02610878704700B58FB0CDE9A6
:1006400001310021059105497944CDE90310114696
:10065000684600F031F90FB000BD0000E5FFFFFF74
:100660000A6802F8010B0A607047D1E900239A4238
:1006700002D2531C0B601070704700002DE9FF5F21
:1006800015468A460446DFF8AC80F8440027D8E9CE
:1006900000103E46CDE9001010E03AF816106A4608
:1006A00002A800F05BFE411C07D02178890603D523
:1006B000E269391891420DD80744761C20788006EB
:1006C00002D5E069B84205DDAE42E6DB3AF8160035
:1006D0000028E2D1A069C01BA0612046FFF7F6FE0A
:1006E000D8E90010CDE90010002017E03AF8181002
:1006F0006A4602A800F032FEB0F1FF3F81460BD0FF
:1007000000250DF1080B05E0D4E901211BF80500D7
:1007100090476D1C4D45F7D308F10100B04280466B
:10072000E4DB206A384420622046FFF7E5FEBDE89E
:10073000FF9F0000128000002DE9F0418046D21D8D
:1007400022F007020025D2E90002F52915A614D0EF
:10075000011E72F1000106DA0023D0EB030063EB07
:10076000020211A608E0D8F800108B0701D50FA6E9
:1007700002E0490701D50EA601251146002408F123
:10078000240704E000F092F930323A55641C50EA34
:100790000102F7D12B46324621464046BDE8F041E2
:1007A00000F0C9B9000000002D0000002B0000007F
:1007B0002000000030B4002100F1240408E002F021
:1007C0000705D208303542EA4372DB086554491CFC
:1007D00052EA0305F3D10468002310A2250707D5C8
:1007E000A40600D421B1C46901230DA2641EC46112
:1007F00030BC00F0A0B910B5044621461068FFF7E0
:1008000095FE02462046BDE810400023D2E7D21DE7
:1008100022F00701D1E90023CCE70000000000002E
:1008200030000000F0B40D460188090502D5214CC6
:100830007C4402E01F4C7C440E34002100F124066D
:1008400008E002F00F071209E75D42EA03721B0994
:100850007754491C52EA0307F3D1027800231207A8
:1008600004D5702D06D009B1022311342246F0BC04
:1008700000F061B901231034F8E770B504460D4665
:1008800021461068FFF752FE024629462046BDE881
:1008900070400023C6E7D21D22F00703D3E90023EE
:1008A000C0E70368126843F0200303600823C361B4
:1008B0000023B7E7747E00002DE9F05F8946044607
:1008C0004FF0000ADFF874B1FB44C0F820A02046C6
:1008D000E1688847002874D0252806D0D4E9012192
:1008E0009047206A401C2062F1E700265F462046C0
:1008F000E16888472028054607DB312D05D27819A5
:1009000010F8200C08B10643F1E7B00701D526F036
:100910000406C4F81CA00027C4F818A02A2D09D08A
:10092000284605F0F8FD38B304EB8708303DC8F8D9
:10093000185019E059F8041B204604EB8702916116
:10094000E1688847012F054618D1E069002820DAC0
:1009500026F020061DE0D8F8180000EB800005EB1B
:1009600040003038C8F818002046E168884705463E
:1009700005F0D1FD0028EED1012F0AD02E2D08D18F
:100980002046E16888477F1C0546022F46F0200676
:10099000C4DBA069002803DA404246F00106A061EA
:1009A000F00701D026F010066C2D0BD0682D09D071
:1009B0004C2D39D06A2D35D0742D35D07A2D33D0C9
:1009C00016E038E0E1682F4620468847B8420546E1
:1009D00009D16C2F26D04FF48060E1680643204691
:1009E0008847054604E06C2F1AD04FF48070064308
:1009F0000DB3A5F14100192802D8203546F4006650
:100A00004A462946204626604E46FFF7A9FB80B19C
:100A100001280BD0F61D26F0070000F1080956E763
:100A20004020E4E78020D8E70020D6E706F104095B
:100A30004DE7284652E7206ABDE8F09F047E00009B
:100A400010B5203AC0F00B80B1E81850203AA0E869
:100A50001850B1E81850A0E81850BFF4F5AF5FEA9D
:100A6000027C24BFB1E81850A0E8185044BF18C950
:100A700018C0BDE810405FEA827C24BF51F8043BF7
:100A800040F8043B08BF7047D20728BF31F8023B4B
:100A900048BF11F8012B28BF20F8023B48BF00F8DF
:100AA000012B704700487047683D002030B5B0F119
:100AB0000A024FEA900E71F100034EEA817EB0EB1C
:100AC0000E0061EB91014FEA101E4EEA017E10EB21
:100AD0000E0041EB11114FEA102E4EEA016E10EBA1
:100AE0000E0041EB11214FEA104E4EEA014E10EB81
:100AF0000E0041EB1141401841F100014FEAD000D6
:100B000040EA41704FEAD10110EB80054FEA8104C1
:100B100044EA907444EB01046D1944EB0404521B45
:100B2000A3414FF0000348BF0A3200D530BD401C3E
:100B300041F1000130BD2DE9F0470D46994692463E
:100B4000044600F124080168880604D5E06921F014
:100B50001001216000E00120A84201DD471B00E0F8
:100B60000027A1697A1902EB0900081AA061207810
:100B7000C00602D42046FFF7A9FC002608E0D4E90D
:100B800001211AF806009047206A401C761C20625A
:100B90004E45F4DB2078C0060AD52046FFF796FCC8
:100BA00006E0D4E9012130209047206A401C2062F1
:100BB000381EA7F10107F4DC07E0D4E9012118F899
:100BC00005009047206A401C2062281EA5F10105FF
:100BD000F3DC2046FFF790FC2078000602D50220C7
:100BE000BDE8F0870120FBE770472DE9FF4F0C4679
:100BF0001E464FF0FF378BB0D2E90001DDF8608070
:100C00000A908A46C1F30A5505B93D4600210846B7
:100C10004FF00000BAF1000F00F4400005DA00EBDD
:100C200080004FF4400101EA50004FEA9059B9F1B9
:100C3000010F00DDB9460A9850EA4A000ED044F68A
:100C40001050A5F2FF3545432F14B8F1000F1ED008
:100C50007542291E1EDDC9F100021CE0B8F1010F2A
:100C60004FF0000001D0302103E0F24305E02154B1
:100C7000401CB042FBDB30460022002121540B997E
:100C8000C1F80880C1E900200FB0BDE8F08FBD1B9E
:100C90006D1CDEE74A4600DA694206A800F0F4FB64
:100CA00006AB93E8070003AB83E8070050460A99B8
:100CB00000F0A6FC8DE80700A0F500501F3800905A
:100CC0000398002D0ADD42F21F014A460844002322
:100CD00003A90390684600F00FFF09E0A0F500505B
:100CE0004A461F38002303A90390684600F019FF05
:100CF0008DE807000004000C03D04FF0FF304108DE
:100D000000E01046B8F1000F03D000220092154613
:100D10001EE0751E05D4FFF7C9FE303262556D1E08
:100D2000F9D5B3460122084302D000227F1C04E01B
:100D30002078302801D100227F1E002A099784D014
:100D40001DE0112D07DAFFF7B1FE303262556D1C40
:100D500050EA0102F5D1084302D00098C8B10EE074
:100D60000021681E05E0235C625C63542254401E2F
:100D7000491C8142F7DBAB46A81B401E09900020AE
:100D800004F80B000B98099AC0F80880C0E9002B02
:100D90007AE711264FF0000857E72DE9F04F884613
:100DA0000446D21D22F0070191B0D1E90001CDE93E
:100DB0000A0105F080FB02460B98C00F01D02D20E0
:100DC00007E02068810701D52B2002E0202101EAFD
:100DD000C000032A099001D0072A05DB03464146DB
:100DE000204600F011FB0BE12078800601D5E06978
:100DF00000E00620B8F1650F814606D0B8F1660F15
:100E000018D0B8F1670F70D131E00020B9F1110F9F
:100E1000009001DB112301E009F101030AAA01A9F5
:100E20000CA8FFF7E2FEDDE90C70002609F10105D0
:100E3000834647E001204B4600904FF000470AAA46
:100E400001A90CA8FFF7D1FEDDE90DB00C995D46B4
:100E5000002610B909F101000D18B9EB050003D403
:100E6000C0F1FF3609F10105A5EB09002BE0B9F14E
:100E7000010F01DA4FF001090020B9F1110F0090C4
:100E8000484601DD112300E003460AAA01A90CA887
:100E9000FFF7ABFEDDE90C704D4600268346207857
:100EA00000070AD4AB4500DA5D4601A8012D04DD38
:100EB000411911F8011C302907D04F4502DA17F10A
:100EC000040F04DA012082460FE06D1EEEE7002FCA
:100ED00002DCED1B3E4403E0781CA84200DD7D1CD3
:100EE000B81B00F1010A4FF000472078000703D437
:100EF000AA4501DB4FF0FF3A0021B7F1004F0DF199
:100F000043088DF8431024D002202B23002F01DA50
:100F10007F422D230A21021EA0F1010000DC5FB1F7
:100F200097FBF1FC97FBF1F201FB1C7C17460CF1DF
:100F3000300C08F801CDEEE7A8F10100037021881C
:100F4000090501D5452100E06521A0F1010800F85F
:100F5000011C09980FA9A1EB0807FF1D00B1012092
:100F6000411901EBEA70A1693844081A401EA061DA
:100F70002078C00602D42046FFF7A8FA099828B1C5
:100F8000D4E901219047206A401C20622078C006E5
:100F900022D52046FFF79AFA1EE0002E04DBB34567
:100FA00002DD01A8805D00E03020D4E901219047F6
:100FB000206A401C2062761CAAF101005FEA000A48
:100FC0000AD100F01DFAC0680168405CD4E9012133
:100FD0009047206A401C2062281EA5F10105DCDC38
:100FE00007E0D4E9012118F8010B9047206A401C62
:100FF0002062381EA7F10107F3DC2046FFF77CFAD8
:10100000032011B041E600002DE9F04F04460D46E3
:10101000D21D22F0070089B0D0E900974846394632
:1010200005F049FA0246F80F01D02D2307E02068A9
:10103000810701D52B2302E0202101EAC0038DF8AE
:1010400020300BB1012000E00020032A824601D0AD
:10105000072A04DB2946204600F0D6F93FE1207834
:10106000800601D40D2500E0E569C7F30A560D2D71
:1010700049DA00214FEA175B08464FF00000002FC5
:1010800000F4400007DA00EB80004FF4400100EB71
:10109000D07001EA60008115012901DD4FF0FF31B8
:1010A00000224FEA850CBCF1180F06D31346ACF1B1
:1010B00018004FF08052C24003E04FF4801323FA2F
:1010C0000CF30CF10C0CBCF1200F04D3ACF1200C90
:1010D00009FA0CF001E007FA0CF000294FF0004883
:1010E00001DD18B90FE00ED140450CD319EB020910
:1010F0005F4121B9404502D19F4329EA0209BBEB78
:10110000175F00D0761C2088000502D57B48784404
:1011100002E07A487844193808AA302302F80A30E5
:10112000037C0AF10101002E0AF1020A53546A46B7
:1011300002DC4FF0300101E04FF031014FF00108C7
:101140008DF8001002D0A6F2FF3603E059EA4701FD
:1011500000D06B4E002D02DC2178090704D54FF03A
:1011600002082E218DF80110C44600210BE0C7F3C0
:1011700003433F01C35C491C6D1E02F8083005297A
:1011800008F1010801DA002DF1DC00210CE000EB90
:101190001973491C1B786D1E082902F808304FEAA4
:1011A000091908F1010801DA002DF0DC21688B062D
:1011B00002D516E0A8F10108E04505DD02EB0803C1
:1011C00013F8013C302BF5D0B8F1000F09DD02EB2C
:1011D000080313F8013C2E2B03D1090701D4A8F111
:1011E0000108002D05DD3E2102F808106D1E08F1F2
:1011F0000108407C002E02F8080008F1010804DA1A
:101200002D20764202F8080002E02B2002F80800A8
:101210000A214FF47A70864208F101080BDB96FB35
:10122000F0F3303302F8083096FBF0F308F10108D0
:1012300000FB136601E0642E0CDB642096FBF0F3E8
:10124000303302F8083096FBF0F308F1010800FB98
:10125000136601E00A2E06DB96FBF1F0303002F84F
:10126000080008F1010896FBF1F001FB1060303036
:1012700002F80800A16908F1010808EB050202EB79
:101280000A00081AA0612078C00602D42046FFF7A1
:101290001DF9216A08AE01EB0A00206204E0D4E9DE
:1012A000012116F8010B9047BAF1010AF7D2207814
:1012B000C00602D52046FFF709F96E4609E016F888
:1012C000010B3E280FD0D4E901219047206A401C31
:1012D0002062B8F10108F2D22046FFF70DF909B0FB
:1012E0000320BDE8F08F206A2844206203E0D4E99F
:1012F0000121302090476D1EEBD3F8E7E275000026
:1013000002FCFFFF10B5436913B1AFF3008001E0A9
:10131000FFF715F9012010BD127800F124010A70C1
:1013200000224A700122EDE711684FF0FF32E9E731
:1013300010B5436913B1AFF3008001E0FFF79EF9E8
:10134000012010BD128800F1240182840022C28491
:101350000122EDE711684FF0FF32E9E770B516465C
:101360000C46054600F044F8036893F80101012893
:1013700006D0FF2C0FD8185D68B101202C7070BD0D
:10138000D3F807013246214603F2071303442846E7
:10139000BDE8704018474FF0FF3070BD00487047FF
:1013A000683D00207546FFF7F9FFAE460500694627
:1013B000534620F00700854618B020B5FEF794FF8D
:1013C000BDE820404FF000064FF000074FF0000846
:1013D0004FF0000B21F00701AC46ACE8C009ACE8C7
:1013E000C009ACE8C009ACE8C0098D4670470000F0
:1013F00010B500F005F8001D10BD00BFFD6A00002B
:1014000000487047883D00202DE9F0411F46044602
:1014100003260168072A01F4006004DB08B116A561
:1014200005E016A503E008B115A500E015A521F01B
:1014300010002060A069C01EA0610FB1401EA06115
:101440002046FFF743F84FB1D4E9012138469047D1
:10145000206A401C2062C01C206206E0206AFAE775
:10146000D4E9012115F8010B9047761EF8D22046E9
:10147000FFF742F8BDE8F0814E414E006E616E000C
:10148000494E4600696E66002DE9F04781461646D2
:101490008AB0354878440DC88DE80D00324878444C
:1014A000801C03AC0DC884E80D0041F69B30084455
:1014B000372190FBF1F290FBF1F5A5F1800501FBDE
:1014C00012041B3C02D56442012000E00020DFF83A
:1014D00098A080460027FA44AAF1BE0A0EE0E00771
:1014E0000AD03246684607EB470101230AEB810127
:1014F00000F017FB8DE8070064107F1C002CEED174
:10150000194F7F44AE3F19E0E80715D007EB0410F0
:101510000DF1180A90E80E008AE80E00C068F0424B
:1015200001D1981908903246012306A903A800F0BA
:10153000F8FA03AB83E807006D10641C002DE3D1BB
:101540004FF0010332466946B8F1000F03A802D0FC
:1015500000F0D2FA01E000F0E4FAC9E90001C9F8AC
:1015600008200AB0BDE8F087EC72000010B5044610
:10157000AFF300802046BDE81040FEF754BE0000E7
:101580004FF0013C50F8042B51F8043B9A4221D112
:10159000A2EB0C03934313EACC1317D150F8042B9E
:1015A00051F8043B9A4215D1A2EB0C03934313EA82
:1015B000CC130BD150F8042B51F8043B9A4209D1BB
:1015C000A2EB0C03934313EACC13DBD04FF00000E3
:1015D000704700BFD01A01BAB1FA81F101F01801C9
:1015E00022FA01F0CB40C1F12001DBB2C0B2C01A37
:1015F0002CFA01F3D11A914311EAC311E6D17047D5
:101600005FEA400C08BF91F0000F4FEA8C234FEACD
:10161000C12243EA51514FEA1C5018BF00F5F04077
:101620004FEA300018BF41F000415FEA6C5C00F007
:101630002980BCF1FF3F08BF40F080407047130C89
:1016400006BF12044FF0100C4FF0000C130E04BF35
:1016500012020CF1080C130F04BF12010CF1040C60
:10166000930F04BF92000CF1020CD30F04BF520081
:101670000CF1010C11464FF00002A0F11F00A0EB8D
:101680000C00704711F0004F08BF704731F0004167
:101690003FF4D5AF0B0C06BF09044FF0100C4FF010
:1016A000000C0B0E04BF09020CF1080C0B0F04BF59
:1016B00009010CF1040C8B0F04BF89000CF1020C22
:1016C000CB0F04BF49000CF1010CCCF12003A0EBBF
:1016D0000C0022FA03F302FA0CF241EA030100F1D2
:1016E0000100704720F07F4C80EA030023F07F4721
:1016F000ACEB070303F57C5300F0004003F1FF035C
:101700002DE980494FEA154B09B44FEA144325EA05
:101710000B4E24EA03480FF2042606EB1327490870
:101720003E785FEA320203FB0667C7F5000707FB56
:1017300006F64FEA54374FEAD64606F1020607FB93
:10174000066CCCF1005C4FEA1C472CEA074C07FB07
:1017500006F40CFB06F504EB15464FEA961634BF6B
:1017600000204FF000404FEAD13706FB07FC4FEA5C
:101770001C4C0CFB0BF7D21B03FB0CF761EB0701B6
:101780000CFB0EF7B0EB074072EB17420CFB08F7AF
:1017900034BFA2EB0742B2EB074261EB17414FEABD
:1017A0000C444FEA910706FB07FC4FEA1C4C0CFB6C
:1017B0000BF7B0EBC74072EB573203FB0CF734BFAB
:1017C000A2EBC742B2EBC74261EB57310CFB0EF7FD
:1017D000B0EBC70072EB57720CFB08F734BFA2EBFB
:1017E000C702B2EBC70261EB5771039F4FEA8161F9
:1017F00041EA921104EBCC044FEAD1374FEA8262FE
:1018000006FB07FC42EA90124FEA80604FEA1C4C4C
:101810000CFB0BF7D21B03FB0CF761EB07010CFB76
:101820000EF7B0EB074072EB17420CFB08F734BF22
:10183000A2EB0742B2EB074261EB17414FEA8C552E
:101840004FEA910704EB9C2406FB07FC4FEA1C4C73
:101850000CFB0BF7B0EBC74072EB573203FB0CF7F6
:1018600034BFA2EBC742B2EBC74261EB57310CFB6E
:101870000EF7B0EBC70072EB57720CFB08F734BFE2
:10188000A2EBC702B2EBC70261EB577115EB4C2517
:101890004FEA816141EA92114FEA82624FEAD13701
:1018A00042EA901206FB07FC44F100044FEA806014
:1018B0004FEA1C4C0CFB0BF7D21B03FB0CF761EB44
:1018C00007010CFB0EF7B0EB074072EB17420CFB65
:1018D00008F734BFA2EB0742B2EB074261EB1741B6
:1018E00015EB1C154FEA813141EA92414FEA8232F1
:1018F00042EA90424FEA80304FEA0C7644F100040D
:1019000048EA03434EEA0B484FF0000EB2EB080CD6
:1019100071EB030724BF624639464EEB0E0E4FF0C3
:10192000000B0018524149414BEB0B0BB2EB080C7A
:1019300071EB03077BF1000B24BF624639464EEB87
:101940000E0E4FF0000B0018524149414BEB0B0BB0
:10195000B2EB080C71EB03077BF1000B24BF62466E
:1019600039464EEB0E0E51EA020718BF46F001064B
:1019700016EB0E7655F1000254F1000103D5BDE8D7
:101980008901BDE80088BDE88901BDE80048B619B5
:10199000524141EB0101A3F10103704780807F7E3A
:1019A0007D7C7B7A797877767675747372717170D5
:1019B0006F6E6E6D6C6C6B6A6A6968686766666587
:1019C0006464636362616160605F5F5E5E5D5D5C15
:1019D0005C5B5B5A5A595958585757565655555586
:1019E0005454535352525251515050504F4F4F4EE6
:1019F0004E4D4D4D4C4C4C4B4B4B4A4A4A49494934
:101A00004848484747474746464645454544444475
:101A1000444343434342424242414141002B9C469E
:101A200030D477002BD01CB54FEA370703B44FF002
:101A300010004FF01001BAF1000F06D0BCF1000FFA
:101A4000DCBF40F0080040F008014FF000000FBC80
:101A5000BDE810400BF1010BBBF1010F08BF5FEABD
:101A6000170722BF12F1010211F101014FF00041ED
:101A700043F1000300F0004043EA00007047F9D34F
:101A80005708D0E746EA064613F1400F4FEA1646DC
:101A90001FDD13F1200FDFBF16430A46002120335C
:101AA0005B42BED0C3F1200746EA064602FA07F7BA
:101AB0004FEA164646EA0706C3F1200722FA03F268
:101AC00001FA07F721FA03F14FF0000342EA070297
:101AD000A7E746EA020646EA06464FEA164646EAFF
:101AE0000106BCBF46EA0646360C4FF000034FF035
:101AF00000024FF0000194E72DE9804C9A4693468E
:101B000070B491E8380007C831EA400C48BF34EAA5
:101B1000430C03D5FFF7E6FDFFF780FFF0BCBDE8FF
:101B2000008C2DE9804C9A46934670B491E83800B9
:101B300007C810F0804F08BF13F0804F03D100F0AA
:101B400005F8FFF76BFFF0BCBDE8008C20F07F4785
:101B500080EA030023F07F4C07EB0C03A3F57C53D2
:101B600000F00040A3F1FE0392F0000F00F0B380FC
:101B700095F0000F00F077802DE901494FEA114000
:101B80004FEA144621EA004800FB06FC24EA064717
:101B900008FB06F607FB08F800FB07F718EB0648FA
:101BA0004CEB164C4FEA124B18EB07484FEA154620
:101BB0004CEB174022EA0B4E0BFB06FC25EA0647CE
:101BC0000EFB06F607FB0EFE0BFB07F71EEB064EA1
:101BD0004CEB164C4FF000061EEB074E4CEB174B30
:101BE00018EB0B0840F1000018EB0E0B58EB000847
:101BF00040F100008F1A4FF000013CBFC943661B43
:101C000014BFB5EB040C00213CBFC943F61B4FEADF
:101C100017444EEA8E0E27EA04454FEA1C4704FBA0
:101C200007622CEA074C05FB07F70CFB05F604FBE3
:101C30000CFC16EB074642EB174216EB0C4642EB48
:101C40001C421BEB060658EB0202414146EA9E0687
:101C500001D5BDE80189B619524141EB0101A3F15B
:101C60000103BDE801894FEA14454FEA114724EA10
:101C7000054621EA074C05FB07F406FB07F70CFBBA
:101C800006F105FB0CFC11EB074144EB17444FEA4E
:101C9000124711EB0C4144EB1C4422EA074C05FBB4
:101CA00007F206FB07F70CFB06F605FB0CFC16EB30
:101CB000074642EB174216EB0C4642EB1C456A18EE
:101CC00054F1000148BF7047B619524141EB010180
:101CD000A3F10103704795F0000F37D04FEA11428E
:101CE0004FEA144721EA024624EA074C02FB07F1B7
:101CF00006FB07F70CFB06F402FB0CFC14EB074495
:101D000041EB17414FEA154714EB0C4441EB1C41E2
:101D100025EA074C02FB07F506FB07F70CFB06F666
:101D200002FB0CFC16EB074645EB174516EB0C4681
:101D300045EB1C42121951F1000148BF7047B6191A
:101D4000524141EB0101A3F1010370474FEA1445F1
:101D50004FEA114724EA054621EA074C05FB07F143
:101D600006FB07F70CFB06F24FF0000605FB0CFC28
:101D700012EB074241EB174112EB0C4251EB1C41B5
:101D800048BF7047921841EB0101A3F1010370476E
:101D900070B5044600688168C943C90717D18168D6
:101DA00021F00101816001F005FC05460AE000BF59
:101DB00001F000FC401B022804D920688068C04361
:101DC000C00706D020688068C043C007F0D000205C
:101DD00070BDA06A40F01000A062E06A40F001000F
:101DE000E062012070BD10B50146406A826A12F0BF
:101DF000500F05D0006A026BBDE81040084610473E
:101E0000816A41F40071816201688968C1F34241CD
:101E100007290CD1017B51B9816A21F4807181625B
:101E2000816AC90403D4816A41F00101816200F032
:101E3000E9FF10BD10B5406A816A41F0400181623E
:101E4000C16A41F00401C16200F0DEFF10BD10B5AF
:101E5000406A00F0D8FF10BDF8B500260446009691
:101E600000688168C943C9072DD0816841F001012C
:101E70008160164816490068B0FBF1F000E0401E92
:101E800000900028FBD101F095FB054616E000BF4D
:101E900001F090FB401B022810D920688068C043E5
:101EA000C0070BD0A06A40F01000A062E06A40F0CA
:101EB0000100E06284F824600120F8BD2068806899
:101EC000C043C007E4D10020F8BD00001C00002082
:101ED00040420F0004F058F8322004F011FCF9E7FA
:101EE0004FF47A7402F00AFE204604F009FCF9E788
:101EF00003F010FA03F04CFB142004F001FCF7E7A8
:101F000003F0D0FC322004F0FBFBF9E738B51B49A5
:101F1000002001238C7A1A4A062C2BD2DFE804F029
:101F20002A030C131C21CA794EF660200093424309
:101F300002230721184603E0009001230821032013
:101F400000F014FC38BD0A7A4EF66020009342433C
:101F5000032309210420F3E701230A21009005202F
:101F6000EEE74A7A4EF660214A4304230B210090A3
:101F70000620E5E7BDE8384000F0CCB9D4000020E9
:101F8000C027090070B5204D00224FF4006128469B
:101F900000F03AFBAC1400222146284600F034FB46
:101FA0001A4D00222021284600F02EFB002210218D
:101FB000284600F029FB00220821284600F024FBD7
:101FC00000222146284600F01FFB0022610028461F
:101FD00000F01AFB0022A100284600F015FB03F0D8
:101FE00075F90B4D00242C762C642C736C73AC7338
:101FF000EC73EC622C632C746C7400F041FC00F008
:1020000099FD6C7570BD000000080140000C014096
:10201000D400002010B50121084600F0ABFA0023DF
:102020001E22BDE810404621184600F089BD000080
:102030002DE9F04101F0BEFA00F046FA4FF480516C
:102040004F00174C174E4FF48048002558B1656378
:1020500000223046A56300F0D7FA00223946304608
:1020600000F0D2FA13E0A07DC00704D00022304671
:10207000656300F0C9FAA07D800705D500223946C6
:102080003046A56300F0C0FAA07D400706D5414662
:102090003046BDE8F041002200F0B6BABDE8F0815C
:1020A000D4000020000C014070B504003BD01F4D4F
:1020B0001F4E2021E87A2071304601F071FA012884
:1020C00000D000202074E8796074287AA074687ABF
:1020D000E07403F047FB207503F050FB60754FF48C
:1020E0008041304601F05CFA012800D00020A07544
:1020F0002878E07503F05CFB207603F017FB607630
:1021000003F01CFBA076617E01B908B1042009E050
:1021100028780B2805D00F2803D0042804D30220E8
:1021200000E00320E07670BD0020FBE7D400002033
:10213000000C014070B5164C217B002927D0216B83
:10214000002924D0401A22D4002525736573A57375
:10215000E573E5622563257465742A4620210D48E0
:1021600000F052FA00224FF400610B4800F04CFAE4
:1021700000F086FBA07A0D2809D1A57203206562C4
:1021800000F038FA6570BDE8704000F0D3BC70BD57
:10219000D4000020000C0140000801402DE9F04768
:1021A000584C00250126207EDFF85C81574F2576AC
:1021B0004FF400694FF4804A082874D2DFE800F039
:1021C0009F04222B4A747C8700222021404600F085
:1021D0001BFA00224946384600F016FA0022514602
:1021E000404600F011FA01221021404600F00CFA9E
:1021F000002365753C221946184600F0A1FC4448AE
:10220000206449E0A07A022802D0FFF703FF43E0F0
:10221000FFF700FF1CE000221021404600F0F4F917
:1022200001222021404600F0EFF9012249463846BC
:1022300000F0EAF900225146404600F0E5F900239B
:102240001A462821502000F07BFCA07A042823D1D4
:10225000667521E000222021404600F0D5F90022D9
:102260001021404600F0D0F900224946384600F0DF
:10227000CBF900225146404600F0C6F903F026F89B
:1022800001221103384600F0BFF9142365750022BE
:102290001946462000F054FC01F08CF9A062216C34
:1022A0000844606224E02AE003F010F800F042FCE9
:1022B0006575A572032006E003F008F800F03AFC0B
:1022C0006575A572022000F095F965700EE002F0C8
:1022D000FDFF03F011FAA572012000F08BF9002335
:1022E00065701A463221184600F02AFCA562656224
:1022F000256401F05FF9BDE8F04700F03DBBBDE8A3
:10230000F0870000D4000020000C014000080140CC
:10231000C027090008B500200523024603210090CC
:1023200000F024FA08BD10B1401A002801DC00209A
:1023300070474FF47A7100F2E730B0FBF1F0FF28FC
:1023400001D9FF207047C0B27047000010B5134C90
:10235000217B99B1017C61738179A1730021E173C3
:10236000E16A19B1017D2174407D60740122202150
:102370000B4800F049F9E06A20B107E0BDE81040E1
:1023800000F052B9A07B08B1012200E00022BDE8B4
:1023900010404FF40061034800F036B9D40000202B
:1023A000000C014000080140F8B5002852D02E4C26
:1023B000C37801272371417CE171867C2672C27C3F
:1023C00062720024294DB03B0A2B43D2DFE803F0B0
:1023D000050A0E121B212A333B4306230022022149
:1023E000009434E0BDE8F840FFF794BFBDE8F84042
:1023F000FFF7ACBF1EA002F0F8FA01232A460C2119
:102400001846009424E001230C212A46072000945A
:102410001EE04EF6602001FB00F202230D21082091
:10242000009715E04EF6602006FB00F203230E2114
:10243000092000970CE04EF66020424304230F2150
:102440000A20009404E007230022012100940020C8
:1024500000F08CF9F8BD00F01FF80028FAD009A0B0
:1024600002F0C3FABEE70000D4000020C027090034
:102470004175746F20636C65616E20737461727452
:102480000D0A00004175746F20636C65616E2073E6
:10249000746F700D0A0000000448807A401E052801
:1024A00001D801207047002070470000D4000020B0
:1024B0000148407D70470000D40000200148C07AE8
:1024C00070470000D40000200649CA7D2AB1C96BBC
:1024D000401A41F28831884201D301207047002020
:1024E00070470000D4000020164A10B5904224D155
:1024F000154CB1F5805F06D0B1F5005F0CD0B1F599
:10250000804F11D019E001F055F8FFF7DDFFB0B9A9
:10251000A07DC00711D012E001F04CF8FFF7D4FF06
:1025200068B9A07D800706E001F044F8FFF7CCFF12
:1025300028B9A07D4007002801DB012010BD002044
:1025400010BD0000000C0140D40000200849CA7AE8
:1025500000B10120C8724871002A07D0002805D1B7
:10256000487D097B084301D0FFF7D4BE70470000C7
:10257000D400002070B505460C0009D01048807DBD
:10258000400704D401F016F8FFF79EFF00B10024C5
:102590000C4E00221021304600F036F82A46202149
:1025A000304600F031F80022F114074800F02CF812
:1025B00022463046BDE870404FF4804100F024B818
:1025C000D4000020000C01400008014010B50A2191
:1025D000074CB1EBD00F01D0002006E0072181436A
:1025E000A17500F0E7FFE0630120E07510BD000079
:1025F000D400002010B5034C207000F0DBFFE06138
:1026000010BD0000D400002070B50C46054622B174
:10261000FFF76AFF08B1012200E0002221462846A8
:10262000BDE8704000F0C1BF2DE9F047284C0646D8
:10263000284FE07BDFF8A09000254FF40068B0B190
:10264000307CA0B1E17C91B1A17C88420FD80022FE
:1026500020213846FFF7D8FF002241464846FFF7C1
:10266000D3FFE562256325746574BDE8F087FFF745
:1026700089FC01202073307C6073B079A073E5730E
:1026800000F098FF41F288310844E06200F092FFC8
:10269000124908442063307D2074707D60740D20E1
:1026A000A0720420FFF7A6FF6570012220213846A2
:1026B0006562FFF7A9FF002241464846FFF7A4FFE5
:1026C000BDE8F047002350222821184600F038BA10
:1026D000D4000020000C014000080140A0BB0D0008
:1026E0002DE9F04100F066FF1E4C054600206063B6
:1026F000A063207C1C4E4FF4805730B12846FFF772
:10270000E3FE10B9A07DC0070DD000223946304647
:10271000FFF77AFF607C4FF40057D8B12846FFF7E7
:10272000D3FE50B116E0207C012200EB4001C1EB4A
:10273000C01005EBC0006063E8E7A07D800709D406
:10274000607C012200EB4001C1EBC01005EBC00032
:10275000A06300E0002239463046BDE8F041FFF7B3
:1027600053BF0000D4000020000C01402DE9F05FB1
:10277000274C90468B4681461E460022202120464B
:10278000DDF828A0FFF740FF002210212046FFF7C8
:102790003BFF204D0022E1142846FFF735FFA71428
:1027A000002239462846FFF72FFF00220821204645
:1027B000FFF72AFF002239462046FFF725FF0022B7
:1027C00061142046FFF720FF0022B9002046FFF7E2
:1027D0001BFF00F055F8104C002558466575257311
:1027E0006573A573E573E56225632574657484F8E4
:1027F0000A90FFF7FFFE65706562A5622575267673
:102800005046C4F84080BDE8F05F02F0CFBC000045
:10281000000C014000080140D400002070B5154DA7
:10282000A87B08B1012600E0002600242C73AC73BD
:102830000120E873EC622C632C746C742246202116
:102840000D48FFF7E1FE00224FF400610B48FFF74F
:10285000DBFEA87A0D280CD1AC726C620EB105209B
:1028600000E00620FFF7C6FE6C70BDE8704000F087
:1028700061B970BDD4000020000C01400008014087
:1028800010B509490020094C4863886302464FF49B
:1028900080512046FFF7B8FE002261142046BDE8B3
:1028A0001040FFF7B1BE0000D4000020000C014032
:1028B000164910B58A7A022A26D10A7E002A23D127
:1028C000896A002920D0401A41F28831884203D217
:1028D000BDE81040FFF79EBB43F6982188424FF0B9
:1028E000000106D20020FFF745FE00231422114606
:1028F00005E00120FFF73EFE002350222821BDE81D
:102900001040002000F01CB910BD0000D4000020D1
:1029100070B5002828D0C178002925D1134C417901
:102920000122A174E2748579207BB8B1607B814279
:1029300002D3FFF773FF11E0012220210C48FFF7BB
:1029400063FE0C48E26A4FF400610AB1002203E022
:10295000A27B9542FAD20122FFF756FE00F02AFE32
:10296000BDE8704000F008B870BD0000D400002041
:10297000000C01400008014070B5134C0546A17AD7
:10298000012909D0032907D0052905D0072903D03B
:102990000B2901D00C2915D1E07C0126002811D08B
:1029A000207E00280ED11021084800F0F9FD0128F2
:1029B00008D1A07C217D084304D142F21070267515
:1029C0002844606270BD0000D4000020000C01406B
:1029D00010B50F4CA17D01F00701CA0703D0A27802
:1029E00042F00102A2708A0703D5A27842F00202E7
:1029F000A270490703D5A17841F00401A170FFF747
:102A000063FD002803D0A07840F00800A07010BD3E
:102A1000D40000202DE9F041164C0546164F606B9E
:102A2000002678B1281A06D52846FFF74DFD10B9C3
:102A3000A07DC00706D000224FF48051384666635F
:102A4000FFF7E2FDA06B002811D0281A06D5284612
:102A5000FFF73AFD10B9A07D800708D53846A66378
:102A6000BDE8F04100224FF40051FFF7CDBDBDE8B5
:102A7000F0810000D4000020000C0140FEE70000BF
:102A800010B50B4C2079002811D0E178002000F01F
:102A900073F8A178042000F06FF86178082000F046
:102AA0006BF82178BDE810400C2000F065B810BD2F
:102AB000A0000020642800D9642070470549C96837
:102AC0004A1C42436420B2FBF0F0884200D9084619
:102AD00070470000E401002030B5074C08B12578AC
:102AE000057009B1607808700AB1A0781070002BE9
:102AF00001D0E078187030BDA00000200B4910B55F
:102B00000120087100210A4801F0A8FB04210848AF
:102B100001F0A4FB0821064801F0A0FB0C210448A9
:102B200001F09CFBBDE81040FFF7AABFA000002009
:102B3000E401002000231A4619461846AFF300802E
:102B40002DE9F0411D4616460F46FFF7B3FF094C2D
:102B500020703846FFF7AEFF60703046FFF7AAFFDF
:102B6000A0702846FFF7A6FFE070BDE8F041FFF730
:102B700087BF0000A000002010B50E4C48B104280B
:102B80000DD00828084610D0FFF798FF2168086488
:102B900010BD0846FFF792FF2168486310BD084644
:102BA000FFF78CFF2168886310BDFFF787FF21685E
:102BB000C86310BDE4010020014800F0F1BA000034
:102BC00058010020014800F0EBBA00001404002076
:102BD000014800F0E5BA0000D0030020014800F0F1
:102BE000DFBA000004030020014800F0D9BA000059
:102BF00048030020014800F0D3BA00008C030020F5
:102C000030B590F840500124AC40C56B6C6004684E
:102C100063604368102B036803D099600068C2604A
:102C200030BD9A600068C16030BD704772B6FEE783
:102C3000F8B500250446009590F8240001280BD033
:102C4000012084F824002046FFF7A2F82046FFF771
:102C500003F9060002D050E00220F8BDA06A20F47B
:102C6000885040F00200A062022000F073FD254968
:102C70000968B1FBF0F0400000E0401E0090002821
:102C8000FBD12068816841F00801816000F092FC6E
:102C9000074608E000F08EFCC01B0A2803D9206814
:102CA0008068000715D4206880680007F2D4206887
:102CB000816841F00401816000F07CFC074612E06D
:102CC00000F078FCC01B0A280DD9206880684007F6
:102CD00009D5A06A20F0020040F01000A06284F83C
:102CE00024500120F8BD206880684007E8D4A06A1D
:102CF00020F0020040F00100A06284F82450304629
:102D0000F8BD00001C000020F8B50024009490F8E5
:102D100024202546012A12D0012280F824204A6866
:102D20001F23072A0DD20668776B521E02EB820220
:102D300093409F430B6893401F43776319E0022041
:102D4000F8BD06680D2A0AD2376BD21F02EB820249
:102D500093409F430B6893401F43376309E0F76A32
:102D60000D3A02EB820293409F430B6893401F434E
:102D7000F7620A68072306680A2A0AD3F7680A3A3C
:102D800002EB420293409F438B6893401F43F760DE
:102D900008E0376902EB420293409F438B689340FF
:102DA0001F4337610A68102A01D0112A20D1124B23
:102DB00002689A4217D193681B0219D4936843F4AE
:102DC000000393600968102912D10C490C4A096864
:102DD000B1FBF2F101EB8101490000E0491E0091D5
:102DE0000029FBD104E0816A41F0200181620124C5
:102DF00080F824502046F8BD002401401C0000202B
:102E000040420F0070477047704700002DE9F041C5
:102E10004FF0000704003D467ED0A06A002628B986
:102E2000E66284F82460204600F07EF82046FEF733
:102E3000AFFFA16AC90600D420B1A06A40F010001B
:102E4000A06269E0A16A21F4885141F00201A16207
:102E50006268E169237B0A4347EA43010A43A168A8
:102E60004FF48077B94209D0012907D05FF0000103
:102E700094F814C0BCF1010F02D00AE03946F7E71C
:102E8000F3B1A36A43F02003A362E36A43F00103B2
:102E9000E3622368D3F804C02CF4694C4CEA010CBB
:102EA000C3F804C021688B68DFF870C003EA0C0324
:102EB00013438B60A168B9420BD0012909D00CE003
:102EC000DFF85CC0A3690CEB43330B4343F40061B0
:102ED000DFE7218A0D05A5F580152168CB6A23F46B
:102EE00070032B43CB62216889680E4B19409142D5
:102EF00008D1E662A16A21F0020141F00101A1625C
:102F0000BDE8F081A06A20F0020040F01000A0624D
:102F1000E06A40F00100E0620120F1E7FDF7E1FF27
:102F200000E0FFFFFE0E1FFF70B586B000250646CD
:102F300000950195029503950068194988422DD1A5
:102F40001849886940F400708861886900F400704D
:102F50000490886940F0040088618869694600F03F
:102F6000040004900320009001900F4800F028FA1C
:102F70000F4C0E48C4E900058020C4E9025040000F
:102F80002061800060612020C4E90605204600F031
:102F9000B1F908B1FFF74AFE3462666206B070BD4F
:102FA00000240140001002400008014008000240D7
:102FB000580100202DE9F047894604463B49006846
:102FC0003B4F0E1D9046884201D0B84207D1306871
:102FD00010F4702F03D001252846BDE8F08794F83F
:102FE000240001280CD0012084F824002046FEF79C
:102FF00033FF05004FF0000004D084F82400EBE715
:103000000220EAE7A16A40F60162914341F480712F
:10301000A1622168B94218D1326812F4702F14D01D
:10302000A16A41F48011A1623168490505D5A16A00
:1030300021F4005141F48051A162A16AC9040AD56A
:10304000E16A21F00601E16206E0A26A22F4801240
:10305000A2624968E9E7E06284F82400216A154821
:103060008862216A1448C862216A1448086321688A
:103070006FF0020008602068816841F4807181600F
:10308000216843464A464C31206A00F061F92068C5
:103090008168C1F342410729816803D041F480115E
:1030A000816099E741F4A001FAE7000000240140A3
:1030B00000280140E71D00084F1E0008351E0008CB
:1030C00010B590F821100022022905D00421816357
:1030D00080F82020012010BD01680B6823F00E034A
:1030E0000B6001680B6823F001030B6090F840301F
:1030F000C46B012101FA03F3636080F8211080F8AA
:103100002020104610BD000010B590F821100024BA
:10311000022903D00421816301243DE001680A688B
:1031200022F00E020A6001680A6822F001020A60B9
:103130001A4A0168914201D1012121E0174A143253
:10314000914201D110211BE0144A2832914201D151
:10315000891515E0114A3C32914201D189140FE0E2
:103160000E4A5032914202D14FF4803108E00B4AAE
:103170006432914202D14FF4801101E04FF080712E
:10318000064A083A5160012180F82110002180F898
:103190002010416B01B18847204610BD0800024055
:1031A0002DE9F05FC16B0C6801680B68D0F840C076
:1031B000042202FA0CF2494DDFF824A1494E4A4F8D
:1031C000DFF828B1DFF828E122422CD05A072AD5AF
:1031D0000A68920603D40A6822F004020A600168B1
:1031E000A94201D1042219E0514501D1402215E044
:1031F000B14202D14FF4806210E0B94202D14FF4E3
:1032000080420BE0594502D14FF4802206E071451F
:1032100002D14FF4800201E04FF080622F4908395B
:103220004A60C16A3BE04FF0020808FA0CF818EA5D
:10323000040F4FF000094FF0010235D05FEA8378A8
:1032400032D50B689B0605D40B6823F00A030B608C
:1032500080F821200168A94201D1022219E05145DC
:1032600001D1202215E0B14202D14FF4007210E0EA
:10327000B94202D14FF400520BE0594502D14FF44C
:10328000003206E0714502D14FF4001201E04FF028
:103290000072124908394A6080F82090816A00293A
:1032A0001AD0BDE8F05F0847082505FA0CF525425D
:1032B00012D01B0710D50B6823F00E030B6090F89B
:1032C0004010C36B02FA01F15960826380F821203B
:1032D00080F82090016BE2E7BDE8F09F0800024013
:1032E0001C000240300002404400024058000240EE
:1032F0006C00024030B528B308C8134914221944A1
:10330000B1FBF2F18900C163104981630221417769
:103310001A6843F6F0718A43D0E900142143D0E9DA
:1033200002452C43214304692143446921438469B4
:103330002143114319600021416301224277017743
:10334000084630BD012030BDF8FFFDBF000002403F
:1033500070B5044690F82000002501280CD001200B
:1033600084F8200094F821600020012E06D084F813
:1033700020000225284670BD022070BD022684F878
:103380002160A0632068066826F0010606602046DA
:10339000FFF736FCE06A00282068016802D041F09F
:1033A0000E0106E021F0040101602068016841F08F
:1033B0000A0101602068016841F001010160D9E75C
:1033C0002DE9F84FDFF8B8910024A9F1040B23464A
:1033D0000F2709F1040AABF1040EC9E00125A5404D
:1033E0002A40AA427DD1674ED1F804C0ACEB060852
:1033F000B44532D014DCBCF1030F3AD009DCBCF187
:10340000000F2AD0BCF1010F1CD0BCF1020F31D14A
:103410001DE0BCF1110F17D0BCF1120F2AD119E039
:10342000B8F5881F19D006DCB8F5803F15D0B8F57F
:10343000801F1FD111E0B8F5001F0ED0B8F5041F92
:1034400018D10AE0CB6815E0CB681B1D12E0CB68F1
:1034500008330FE0CB680C330CE08B682BB1012BE9
:103460004FF0080303D0456104E0042302E0056146
:1034700000E00023FF2A01D8064601E000F104061F
:103480004FEA840501D9A5F12005D6F8008007FA96
:1034900005FC28EA0C0803FA05F548EA0508C6F811
:1034A00000804D68ED0062D5374DAE6946F00106EB
:1034B000AE61AD6924F0030605F001050095334DBA
:1034C00006EB050CDCF80850A607360F07FA06F8DD
:1034D00025EA0805DFF8B880404503D14FF0000821
:1034E00017E044E0DFF8AC80404502D14FF001081E
:1034F0000FE0DFF8A480404502D14FF0020808E059
:10350000DFF89880404502D14FF0030801E04FF00A
:10351000040808FA06F848EA0508CCF808804D685F
:10352000D9F80060ED024D4601D5164300E0964300
:103530002E604D68DAF80060AD02554601D516439D
:1035400000E096432E604D68DBF80060AD035D46F9
:1035500001D5164300E096432E604D68DEF800600A
:10356000ED03754601D5164300E096432E60641CBA
:103570000D682A46E5407FF431AFBDE8F88F0000C2
:10358000080401400000111000100240000001403A
:1035900000080140000C01400010014000140140EF
:1035A0008068084000D0012070470AB1016170476F
:1035B0000904FBE701488068704700001000002004
:1035C0000248816802781144816070471000002031
:1035D000074810B5016841F010010160032000F0B8
:1035E000A7F80F2000F006F800F050F8002010BDFA
:1035F0000020024030B50546204887B0C16941F03F
:103600000101C161C06906A900F00100009001A894
:1036100000F0FEF90498B8B100F01AFA4000184919
:103620004FF08042B0FBF1F11648491E0260416044
:1036300040F2E7320021C0E903218160816100F09E
:1036400013FC040003D015E000F002FAE7E70D4890
:1036500000F056FC04000DD11C2000F03BF8102DAA
:1036600007D2002229461C2000F042F806480560D7
:1036700000E0012407B0204630BD000000100240E9
:1036800040420F0058040020140000200F4808B5E5
:10369000816941F001018161816901F001010091BD
:1036A000C16941F08051C161C069002200F08050C1
:1036B00000900F21901E00F01BF80548416821F092
:1036C000E06141F00071416008BD0000001002405F
:1036D00000000140002809DB00F01F020121914099
:1036E0004009800000F1E020C0F8001170470000A0
:1036F000F0B40E4B1B680C46C3F30223C3F107055D
:10370000042D00D90425191D072901D2002300E04A
:10371000DB1E012606FA05F1491E214099409E4014
:10372000761E16403143F0BC02F0D9BE0CED00E02D
:10373000064900F0070208684FF6FF03184040EA08
:103740000220034A10430860704700000CED00E0BF
:103750000000FA0510B501460020234C012922D0B3
:10376000022939D010291DD161682268D20119D5EA
:103770001E48C1F38342C903805C0AD561681B4AB5
:10378000C1F34041921E515C194AB2FBF1F148432A
:1037900001E0184948436168490203D4400003210D
:1037A000B0FBF1F010BD226AC2F30121012903D15F
:1037B000920701D5C80310BD022905D1626A92079C
:1037C00002D549F6404010BD0329FCD12168890388
:1037D000F9D54FF2244010BD00F04AF96168C1F3F9
:1037E0008131491C4900DBE70010024018860008BF
:1037F00000127A0000093D002DE9F84305460078E3
:10380000354CC00754D0E0690026C00008D4E069F8
:1038100040F08050E061E069012600F080500090A7
:103820002E480168C90512D40168804641F48071B0
:103830000160FFF7BFFE074605E000BFFFF7BAFED5
:10384000C01B642823D8D8F80000C005F6D5206A2C
:1038500010F4407021D0A98801F4407181421CD03D
:10386000206A1F49012220F440700A6000220A6089
:103870002062C00711D0FFF79DFE074641F288384D
:1038800008E000BFFFF796FEC11B414502D90320A7
:10389000BDE8F883206A8007F4D5206A696820F4BF
:1038A0004070084320621EB1E06920F08050E06162
:1038B0002878800705D56068A96820F4404008434F
:1038C00060602878C00605D56068E96820F480004B
:1038D000084360600020DBE70010024000700040F9
:1038E000400442422DE9F0470F46050061D0434EA7
:1038F000306800F00700B84209D2306820F00700B5
:1039000038433060306800F00700B84251D1286871
:103910003B4C810712D5400703D5606840F4E06056
:1039200060602878000703D5606840F460506060EC
:103930006068A96820F0F000084360602878C0073C
:1039400028D06868012810D02168022810D0890783
:1039500000292EDA616821F0030101436160FFF75D
:1039600029FE804641F288390DE021688903EFE79E
:103970008901EDE7FFF71EFEA0EB0801494502D9DA
:103980000320BDE8F0876068696800F00C00B0EBC8
:10399000810FEFD1306800F00700B8420BD93068D2
:1039A00020F0070038433060306800F00700B8426C
:1039B00001D00120E5E72878400705D56068E9686F
:1039C00020F4E060084360602878000706D560684E
:1039D000296920F4605040EAC100606000F058F8A6
:1039E0006168084AC1F30311515CC8400649086088
:1039F00006480068FFF7FEFD0020C2E700200240F5
:103A000000100240288600081C000020140000203E
:103A10000F2202600C4A536803F0030343605368AB
:103A200003F0F0038360536803F4E063C3605268FB
:103A30004FF4E06303EAD20202610448006800F038
:103A4000070008607047000000100240002002409C
:103A50000448054900684968044AC1F30221515CE1
:103A6000C84070471C000020001002403886000843
:103A70000448054900684968044AC1F3C221515C01
:103A8000C84070471C000020001002403886000823
:103A90000E4A51680E4801F00C03042B11D0082B7C
:103AA0000FD10C48C1F38343C903C05C0AD55168E8
:103AB000084AC1F34041921E515C054A5043B0FB95
:103AC000F1F070470449484370470000001002407D
:103AD00000127A000686000800093D002DE9F84F23
:103AE000040070D02078C04DC00749D06868C0F38A
:103AF0008100012807D06868C0F38100022809D13D
:103B00006868C00306D52868800339D56068002836
:103B1000E7D035E06068B0F5803F0BD010B1B0F56C
:103B2000A02F11D0286820F480302860286820F465
:103B3000802002E0286840F480302860606890B1FE
:103B4000FFF738FD06460AE0286840F48020286028
:103B5000F0E700BFFFF72EFD801B642873D82868AC
:103B60008003F7D50CE0FFF725FD064605E000BF12
:103B7000FFF720FD801B6428F0D828688003F7D465
:103B800020789A4E80074FF001094FF0000839D590
:103B9000686810F00C0F07D06868C0F38100022835
:103BA00009D16868C00306D42868800714D5206945
:103BB000012808D110E02069B0B1C6F80090FFF7E5
:103BC000F9FC074605E00AE1FFF7F4FCC01B0228F8
:103BD000C4D828688007F7D52868616920F0F80004
:103BE00040EAC10028600DE0C6F80080FFF7E2FC63
:103BF000074604E0FFF7DEFCC01B022823D8286834
:103C00008007F7D4207800072CD57948A169D9B16D
:103C1000C0F80090FFF7CEFC074604E0FFF7CAFCAF
:103C2000C01B02280FD8686A8007F7D571484FF487
:103C3000FA510068B0FBF1F0009000BF0098411EFF
:103C40000091FAD20EE080E0C0F80080FFF7B2FCED
:103C5000074604E0FFF7AEFCC01B022875D8686A6F
:103C60008007F7D42078400760D5E8690027C000B6
:103C700008D4E86940F08050E861E869012700F065
:103C8000805000905C480168C90513D401688346E0
:103C900041F480710160FFF78DFC824606E000BFB1
:103CA000FFF788FCA0EB0A0064284ED8DBF8000080
:103CB000C005F5D5E06801280AD008B1052813D061
:103CC000286A20F001002862286A20F0040002E03F
:103CD000286A40F001002862E06841F2883B98B110
:103CE000FFF768FC82460BE0286A40F00400286277
:103CF000EEE700BFFFF75EFCA0EB0A0159455AD87A
:103D0000286A8007F6D50CE0FFF754FC824605E0F0
:103D1000FFF750FCA0EB0A0159454CD8286A8007F0
:103D2000F6D41FB1E86920F08050E861E06988B3FB
:103D30006968C1F38101022944D00228C6F8608075
:103D400004D0FFF737FC044638E034E0FFF732FCDC
:103D5000074604E0FFF72EFCC01B02282BD828687A
:103D60008001F7D4206AB0F5803F05D16868A1686A
:103D700020F4003008436860D4E90801084369680A
:103D800021F4741108436860C6F86090FFF712FCD4
:103D9000044606E025E000BFFFF70CFC001B0228EC
:103DA00009D828688001F7D51BE000BFFFF702FCA7
:103DB000001B022802D90320BDE8F88F2868800183
:103DC000F4D40EE00128F7D06868226A00F480314C
:103DD000914204D1616A00F47010884201D0012040
:103DE000EAE70020E8E7000000100240000042423D
:103DF000800442421C000020007000407047704761
:103E000070B590F83C20012A26D0012480F83C406F
:103E1000022280F83D2003685A689D6822F07006EF
:103E20000A6832435A600D4B02689A4208D0B2F1D8
:103E3000804F05D00A4B9A4202D00A4B9A4204D1D5
:103E4000496825F080031943916080F83D400021C6
:103E500080F83C10084670BD022070BD002C014067
:103E6000000400400008004010B5040003D094F89E
:103E70003D0010B107E0012010BD002084F83C0097
:103E8000204600F01FF8022084F83D00211D206824
:103E900001F09EFD012084F8460084F83E0084F87D
:103EA0003F0084F8400084F8410084F8420084F820
:103EB000430084F8440084F8450084F83D00002065
:103EC00010BD000008B500680B49884212D10B48AC
:103ED000C16941F00201C161C069002200F0020025
:103EE000009006211D20FFF703FCBDE808401D20BF
:103EF000FFF7F0BB08BD00000004004000100240C6
:103F000090F83D10012901D001207047022180F86E
:103F10003D100168CA6842F00102CA6000680B499E
:103F2000884208D0B0F1804F05D00949884202D0BC
:103F30000849884204D1816801F00701062903D0AD
:103F4000016841F00101016000207047002C014030
:103F500000040040000800400168CA6822F0010225
:103F6000CA6001680A6A41F211131A4207D10A6A4B
:103F70009B101A4203D10A6822F001020A60012153
:103F800080F83D100020704770472DE9F04104464D
:103F90000068C66805694FF00007A90713D5B10787
:103FA00011D5F91E01610120207720688069800702
:103FB000204602D0FFF7E8FF04E000F0A5F8204615
:103FC00000F04AF92777680716D5700714D52168DD
:103FD0006FF004000861022020772068806910F4E7
:103FE000407F204602D0FFF7CFFF04E000F08CF8BE
:103FF000204600F031F92777280715D5300713D56B
:1040000021686FF008000861042020772068C069EB
:104010008007204602D0FFF7B7FF04E000F074F8F5
:10402000204600F019F92777E80616D5F00614D5D2
:1040300021686FF010000861082020772068C069AF
:1040400010F4407F204602D0FFF79EFF04E000F00E
:104050005BF8204600F000F92777E80708D0F00762
:1040600006D021686FF001000861204600F044F995
:10407000280608D5300606D521686FF08000086153
:104080002046FFF7BBFE680608D5700606D52168F6
:104090006FF040000861204600F03CF9A8060AD500
:1040A000B00608D521686FF0200008612046BDE801
:1040B000F041FFF7A4BEBDE8F081000000B585B077
:1040C0000021009101910291039100680B498842FF
:1040D00012D10B48816941F008018161806969460C
:1040E00000F0080004904FF47070009002200190DE
:1040F00003900448FFF764F905B000BD00080040D4
:1041000000100240000C0140704770B5044690F862
:104110003C0000260D4601280FD0012084F83C0009
:104120006AB1042A1DD0082A2FD00C2A3FD00126BC
:10413000002084F83C00304670BD022070BD20682D
:1041400001F0A8FC2068816941F0080181612068C4
:10415000816921F004018161206881692A69114324
:1041600011E0206801F0BEFC2068816941F4006123
:1041700081612068816921F48061816120688169A1
:104180002A6941EA02218161D2E7206801F0D6FC68
:104190002068C16941F00801C1612068C16921F04E
:1041A0000401C1612068C1692A69114311E02068D6
:1041B00001F0F0FC2068C16941F40061C161206830
:1041C000C16921F48061C1612068C1692A6941EA3D
:1041D0000221C161ACE710B5040003D094F83D00A2
:1041E00010B107E0012010BD002084F83C002046FB
:1041F00000F01EF8022084F83D00211D206801F027
:10420000E7FB012084F8460084F83E0084F83F0074
:1042100084F8400084F8410084F8420084F84300A8
:1042200084F8440084F8450084F83D00002010BD67
:1042300008B500680649884208D10648C16941F0BE
:104240000401C161C06900F00400009008BD0000D5
:1042500000080040001002407047000010B50446FE
:10426000022249B104290ED0082913D094F8410044
:10427000012816D0012010BD94F83E000128F9D184
:1042800084F83E200FE094F83F000128F2D184F832
:104290003F2008E094F840000128EBD184F840204A
:1042A00001E084F841200122206801F0CDFB0F4994
:1042B0002068884203D1426C42F400424264206884
:1042C000884208D0B0F1804F05D00949884202D019
:1042D0000849884204D1816801F00701062903D00A
:1042E000016841F001010160002010BD002C014077
:1042F00000040040000800400068B0F1804F04D086
:104300000349884203D100F0BBBFFFF759B970479A
:1043100000040040704738B5044690F84200202859
:1043200001D0022038BD51B14AB1012020630020E4
:104330006063204602F064F8216B012901D001205E
:1043400038BD21680A684968009121680C3151E83C
:10435000002F42F0100241E80023002BF5D138BDB8
:1043600001F0A0BD10B5044601F076FC2046BDE882
:10437000104000F0E5BA0000F8B50168044608688E
:10438000CA684B6910F00F0F4FF0000559D003F0C9
:10439000010602F49077374365D0C10705D0D105F7
:1043A00003D5616C41F001016164410705D5D9076E
:1043B00003D0616C41F002016164810705D5D90722
:1043C00003D0616C41F004016164010707D502F07C
:1043D0002001314303D0616C41F008016164616CDC
:1043E00000293AD0800604D5900602D5204601F077
:1043F00049FF20684069616CC0F38010090700D450
:1044000060B3204601F009FF20684069400621D5CD
:104410002068143050E8001F21F0400140E80012ED
:10442000002AF5D1E06BA8B16D494163E06BFEF75E
:104430006BFE002811D0E06B416B01B0BDE8F0408D
:10444000084783060FD593060DD52046BDE8F840F2
:1044500001F018BF2046FFF785FFF8BD2046FFF7A3
:1044600081FF6564F8BD266B2023012E7CD1C60632
:104470007AD5D60678D508684868009048694FF024
:104480000206400640D5E16B086840680004000C55
:10449000E8D0A28D8242E5D9E085886920282DD018
:1044A00020680C3050E8001F21F4807140E80012B1
:1044B000002AF5D12068143050E8001F21F00101D6
:1044C00040E80012002AF5D12068143050E8001F9F
:1044D00021F0400140E80012002AF5D184F8423072
:1044E000256320680C3050E8001F21F0100140E8DF
:1044F0000012002AF5D1E06BFEF7E2FD6663A08DA5
:10450000E18D401A81B22AE0A08DE18D401A81B27E
:10451000E08D0028A6D00029A4D022680C3252E8F1
:10452000000F20F4907042E80007002FF5D12068BA
:10453000143050E8002F22F0010240E80027002F3D
:10454000F5D184F84230256320680C3050E8002F04
:1045500022F0100240E80023002BF5D166632046CC
:10456000FFF7FEFEF8BDFFE705062BD5150629D59A
:1045700094F841002128F5D1A068B0F5805F01D101
:104580002069B0B1206A411C21622168007848602E
:10459000E08C401E0004000CE084E3D12068C16878
:1045A00021F08001C1602068C16841F04001C16014
:1045B000D8E7206A0088C0F308004860206A801CA1
:1045C0002062E5E74006CDD55006CBD5CA68204627
:1045D00022F04002CA6084F8413000F0A5F9C1E73A
:1045E000D160000870B5040004D094F841000025A3
:1045F00010B106E0012070BD84F84050204600F064
:1046000023F8242084F841002068C16821F4005177
:10461000C160204601F098FE2068016921F49041B4
:1046200001612068416921F02A0141612068C16867
:1046300041F40051C1606564202084F8410084F891
:1046400042006563002070BD2DE9F04786B000246C
:1046500000940194029403940546DFF82C82D0F86C
:1046600000C08A4802210322894B102780264FF47C
:104670008069C44545D1D0F818C04CF4804CC0F8CE
:1046800018C0D0F818C00CF4804CCDF810C0D0F889
:1046900018C04CF0040CC0F818C08069039200F0F8
:1046A000040004900802CDE90001694698461846C6
:1046B000FEF786FECDE90094694640460294FEF777
:1046C0007FFEDFF8D48173494046C0E90246C8F84E
:1046D0001040C8F81440C8F81840C8E90017C8F8D6
:1046E0001C40FEF707FE08B1FEF7A0FAC5F83880B7
:1046F000002205212520C8F82450FEF7F9FF2520C7
:1047000062E0DFF898814FF0200AC44561D1D0F80B
:104710001CC04CF4003CC0F81CC0D0F81CC00CF409
:10472000003CCDF810C0D0F818C04CF0040CC0F814
:1047300018C08069039200F0040004900420CDE9C1
:104740000001694698461846FEF73AFE0820CDE972
:104750000004694640460294FEF732FEDFF83881D5
:104760004C4908F1880840463C31C0E90246C8F887
:104770001040C8F81440C8F81840C8E90017C8F835
:104780001C40FEF7B7FD08B1FEF750FA424F414812
:10479000C5F8388044372830C8F82450C7E90004E9
:1047A000C7E902463C61C7E9054A3846FC61FEF7A5
:1047B000A1FD08B1FEF73AFAEF6300220521262099
:1047C0007D62FEF795FF2620FEF784FF06B0BDE868
:1047D000F087334B9C45F9D1C36943F48023C3610F
:1047E000C36903F480230493836943F0080383615E
:1047F0008069CDE9009100F00800CDE90320DFF8E1
:10480000A48069464046FEF7DBFD4FF40060CDE929
:104810000004694640460294FEF7D2FDDFF8788036
:104820001C4908F1CC0840461439C0E90014C0E91D
:104830000246C8F81040C8E9054AB146C8F81C400D
:10484000FEF758FD08B1FEF7F1F91248164EC5F80B
:104850003C802838C8F824503060C6E90174C6E9A5
:1048600003947461B4613046F461FEF743FD08B10E
:10487000FEF7DCF9AE630022052127207562FEF702
:1048800037FF2720A0E70000003801400010024059
:10489000000801404400024004030020004400409E
:1048A00000480040000C014014040020704770478D
:1048B00070B5044690F84100202801D0022070BD58
:1048C00049B342B32162A284E284002060642123C0
:1048D00084F84130A56B114BAB62A56B104BEB62BA
:1048E000A56B104B2B63A36B5863256813462A1DD9
:1048F000A06BFEF72DFD21686FF040000860206876
:10490000143050E8001F41F0800140E80012002AF6
:10491000F5D1002070BD012070BD0000CF610008FE
:1049200011620008E160000810B5044601F0BCFB0C
:104930002046BDE8104000F0E7B97047FEE70000F0
:1049400070B504461648844228D1164D01202870BF
:104950002068143050E8001F21F0800140E8001268
:10496000002AF5D120680C3050E8001F21F04001EA
:1049700040E80012002AF5D1A06B08B1FEF7A0FBB9
:10498000202084F84100EFF3108072B60021697096
:1049900000B962B6BDE8704000F066B870BD0000B6
:1049A0002C020020A6000020EFF3108072B6002138
:1049B000044A518091805170117000B962B602A012
:1049C00000F013B8A600002042415345204C4F4749
:1049D0002069732072656164790D0A00401C80B201
:1049E000B0F5007F00D3002070472DE9F0410600AC
:1049F00014D0FBF7A7FC04464FF480374FF6FF783E
:104A00000AE0BC4201D3454600E0A5B22946304643
:104A100000F08CF92E44641B002CF2D1BDE8F0812B
:104A20000FB430B5B1B00024349A002A15D035AB9C
:104A3000C0216846FBF76CFC0A4D002801DA012012
:104A40000AE0C02801D3BF20012481B2684600F0EB
:104A50006DF9002C01D00220287031B030BC5DF817
:104A600014FB0000A60000202DE9F0470026EFF31C
:104A7000108572B61D4C607818B96088A18888428C
:104A800002D175B3BDE8F08701206070A788DFF818
:104A9000608008F5007909E018F8071009F8061099
:104AA0003846FFF79BFF761C0746B6B26088874200
:104AB00001D0402EF0D305B962B600255EB1324672
:104AC0000C490D48FFF7F4FE01002170EFF3108050
:104AD00072B608D002E0EFF3108072B6657000285D
:104AE000D0D162B6CEE7A780F9E70000A60000208B
:104AF00074390020743B00202C0200202DE9F04F77
:104B00009FB000F013FE044600F018FE834610AB81
:104B10000FAA0EA90DA8FDF7DFFF19A800F0DEFC13
:104B2000BDF96C004FF02B08002803DA40424FF02B
:104B30002D0800B286B2BDF96E002B25002802DADE
:104B40002D25404200B2DFF88CA187B220215046CB
:104B5000FEF726FD01287DD00022914600F0D4FD0D
:104B6000039000F0D7FD189000F058FE179000F069
:104B700011FE169000F01CFE159000F0EDFD149053
:104B800000F0E4FD139000F0CBFD01460DF1200E86
:104B9000C4F3C00CC4F38003C4F3400204F001006A
:104BA0008EE80D100398CDE90409CDE9064B0DF10F
:104BB000540999E80D108DE80D10DDE913234648DE
:104BC000FFF72EFF00F0D2FA079000F0E9FA069006
:104BD00000F0C6FA0590082154465046FEF7E0FC66
:104BE000012800D00020DFF8F4A081464FF4805166
:104BF0005046FEF7D5FC012800D0002002904FF46B
:104C000000615046FEF7CCFC012800D0002083460E
:104C10004FF480412046FEF7C3FC012855D0002404
:104C20004FF400512B48FEF7BBFC012800D00020B8
:104C300082464FF480512748FEF7B2FC012800D08D
:104C40000020149010212348FEF7AAFC012800D070
:104C5000002000E037E0139020211E48FEF7A0FC62
:104C6000012834D05FF000019DF840009DF83C2001
:104C7000CDE90A209DF838309DF834C0CDF8109069
:104C8000CDE908C30298CDE900A4CDE902B0DDE981
:104C900013231348FFF7C4FE0A20B6FBF0F2B7FB5C
:104CA000F0F1B7FBF0F400FB126300FB1171B6FBEF
:104CB000F0F20095CDE9014141460AA0FFF7B0FEB0
:104CC0001FB0BDE8F08F012247E70124A8E70121CA
:104CD000CAE70000000C01404088000800080140BD
:104CE000C88700085B204E54435D20494E3D256334
:104CF00025752E257543207C204F55543D25632571
:104D0000752E2575430D0A000649884209D1EFF337
:104D1000108072B60021044A517000B962B6FFF7E4
:104D2000A3BE70472C020020A60000202DE9F0470A
:104D30000F465FEA000823D0002F21D0EFF3108642
:104D400072B600250F4CDFF840900FE06088FFF747
:104D500045FEA188884201D102200AE018F805200A
:104D6000638809F8032060806D1CADB2BD42EDD3AD
:104D70000020207006B962B6BDE8F047FFF774BEA8
:104D8000BDE8F087A600002074390020FEB500249D
:104D900016480094019414490294016089158160B9
:104DA000012505730475022606614FF460214460F5
:104DB000C161FEF72BF808B1FDF738FF062000941B
:104DC000CDE9015069460948FDF79EFF08B1FDF79E
:104DD0002DFFCDE9005669460448FDF795FF0028F0
:104DE00001D0FDF723FFFEBD002401402801002073
:104DF0001D4808B5416941F0010141614069002247
:104E000000F00100009006210B20FEF771FC0B2042
:104E1000FEF760FC002206210C20FEF769FC0C2046
:104E2000FEF758FC002206210D20FEF761FC0D2044
:104E3000FEF750FC002206210E20FEF759FC0E2042
:104E4000FEF748FC002206211020FEF751FC10203E
:104E5000FEF740FC002206211120FEF749FCBDE8C8
:104E600008401120FEF736BC0010024010B5FDF7D7
:104E700045FE00F081F900F041FB00F0E9FCFFF78E
:104E800093FD00F01BFF0E4A00210E4801F074FC58
:104E90000D4C0B4A0021206024320C4801F06CFCC0
:104EA000074A606048320021094801F065FC044A65
:104EB000A0606C320021074801F05EFCE06010BD8C
:104EC00074850008F11E000800000020D51E0008AF
:104ED000E11E0008011F0008F0B585B000252B4831
:104EE0000095019502950395816941F0200181614A
:104EF000816901F020010491816941F0040181611F
:104F0000816901F004010491816941F00801816126
:104F1000816901F008010491816941F00101816119
:104F200080691B4E00F001000490002249F6A01198
:104F30003046FEF73AFB174F00224FF23B0138464E
:104F4000FEF733FBA02001248DE8310002200390FE
:104F500069463046FEF734FA032000906946384629
:104F6000FEF72EFA4FF419408DE8310069463046BD
:104F70000394FEF725FA4FF238008DE831006946B8
:104F800038460394FEF71CFA05B0F0BD001002404D
:104F900000080140000C01401CB500240F4800949B
:104FA0000D49019401604721C0E9011440F6B73171
:104FB000C0E903148461FEF757FF08B1FDF736FE20
:104FC0000094694605480194FEF71AFF002801D0B5
:104FD000FDF72CFE1CBD0000000400409C010020D9
:104FE0001CB500241848009416490194016047211B
:104FF000C0E9011440F2F311C0E903148461FFF722
:10500000EAF808B1FDF712FE009469460E480194D3
:10501000FEF7F6FE08B1FDF709FE00210A4800F090
:1050200020FD0421084800F01CFD0821064800F07E
:1050300018FD0C21044800F014FD0348FFF73EF86A
:105040001CBD000000080040E40100200C4810B521
:105050000A4901604FF4E1314160002181600C2276
:10506000C160C0E904128161C161FFF7BBFA002889
:1050700003D0BDE81040FDF7D9BD10BD0038014098
:105080002C0200200C4810B50A4901604FF416416B
:105090004160002181600C22C160C0E9041281617D
:1050A000C161FFF79FFA002803D0BDE81040FDF76B
:1050B000BDBD10BD00440040740200200C4810B576
:1050C0000A4901604FF4E1314160002181600C2206
:1050D000C160C0E904128161C161FFF783FA002851
:1050E00003D0BDE81040FDF7A1BD10BD0048004051
:1050F000BC020020FEE70000094841790029017A3E
:1051000007D051B1017A491EC9B20172007A00F08C
:1051100003B9491C01F00701F7E70721F5E7000093
:10512000AC00002010B50C4C002202212046FEF7F6
:105130003CFA002201212046FEF737FA074C0022F4
:1051400080212046FEF731FA20460022BDE81040BB
:105150002021FEF72ABA0000000C0140000801409F
:105160000148807970470000AC00002001480079B8
:1051700070470000AC00002010B5012000F0B8F826
:10518000064800214181017041708170C170017138
:1051900041718171C171017210BD0000AC0000202D
:1051A0000148007870470000AC00002070B5040092
:1051B00001D0012C21D1264D287808B3E87984420A
:1051C0001BD0002000F094F86889C0F580600604C8
:1051D000360C08D0012C11D05FF0000000F03AF836
:1051E000EC716E812EE0FFF79DFF00206881287032
:1051F000E8706870A870AC71EC7170BD0120EDE7CB
:10520000A8790126FF2807D0A879A04206D1BDE8D9
:105210007040012000F06CB82E7170BD002000F0CD
:1052200067F8012C12D0002000F014F8EC714FF454
:10523000806068812E70EE706E703220A870287ABF
:1052400000F06AF8BDE8704000F00EB80120EBE70E
:10525000AC00002018B100200249487170470120BD
:10526000FAE70000AC000020044800210268516207
:105270000068891E01610148FEF742BE9C010020C2
:1052800070B5114C2078A0B16089002538B1FFF7C6
:1052900033FF6089401E60816089002808D10120A9
:1052A00000F026F82570E5706570A570E079A071B2
:1052B00070BDE07818B1BDE87040FFF71DBFBDE8D4
:1052C0007040012000F014B8AC00002070B5074C0D
:1052D0002578012000F00CF80020608120700DB1CD
:1052E000FF21A1716070A070E07070BDAC00002063
:1052F00010B504460648FEF72FFE05490020096850
:105300004862002C03D0BDE81040FFF70BBF10BD72
:105310009C0100207047000070B5164D044615F83A
:10532000240008B1012200E00022134E0221304681
:10533000FEF73BF905EB8404607808B1012200E038
:10534000002201213046FEF730F9A07808B1012291
:1053500000E00022094D80212846FEF726F9E0787A
:1053600008B1012200E000222846BDE8704020215B
:10537000FEF71BB940860008000C01400008014000
:10538000FEE7000070B51A4E052826D940F6FA71DE
:10539000884222D202F024FF164902F02BFE044676
:1053A00001464FF07E55284602F0FAFF124902F0FE
:1053B0002BFF214602F01EFEA8420EDD0F4902F02F
:1053C00019FE01F0B1F80E4902F014FE0D4902F089
:1053D000A9FD0146B0F5000F01DA304670BD284640
:1053E00002F008FEBDE87040074902F0D9BF000096
:1053F0000000C8C200F07F450050C34700401C4673
:1054000000E076450FCF5B3B339388432DE9F047AF
:1054100004461E480A4600EB440706191A4B1C486E
:10542000A1F5000100F11105994223D2015D4FF071
:105430000109C1B155F824801046414602F0B0FF81
:105440006FF0030103F057F8414602F06BFD45F899
:105450002400104902F0D8FE02F08EFE388186F852
:105460000C90BDE8F08745F8242000F8049055F82A
:105470002400EEE7084945F82410002101554FF6B5
:10548000184038813173ECE700002A42B43B002019
:10549000BB000020000020410000C8C270B50C4CC9
:1054A00000250E21E56025616561A561A4F8035022
:1054B0000848FAF7B3FF0749074A2570002000BFE4
:1054C00001EB4003401CC0B21A810228F8D370BD22
:1054D000B8000020B43B002018FCFFFF10B50028E6
:1054E00009D0EFF3108472B60E220349FAF749FF90
:1054F000002C00D162B610BDB43B00202DE9F04174
:105500001F4800240460FFF7C9FF1D4D1D4EAD1F4D
:1055100000226C70AC704FF4807421463046FEF768
:1055200044F8DFF86480E701002239464046FEF780
:105530003CF81648FDF77CFB28B90222A91D134848
:10554000FDF738FD58B1002221463046FEF72DF810
:1055500039464046BDE8F0410022FEF726B80B4828
:10556000016A09680A6822F004020A60006A006899
:10557000016821F00201016001206870BDE8F0813E
:10558000BE00002000080140000C0140280100205E
:105590002DE9F04700F0E0F82E4D697829B1022896
:1055A00003D0032801D0012400E00024A87884421D
:1055B00016D00CB1012200E000224FF48071264881
:1055C000FDF7F3FF0CB1012200E000224FF400418F
:1055D0002248FDF7EAFFAC70BDE8F047FFF75EBF79
:1055E000002933D0002831D0DFF868801C4F08F143
:1055F0000608002408F1060640F2FF7940F6FF7A1B
:1056000038F81400297819B356F82410A1EBD10109
:1056100000EB010046F82400C0F3CF0040F239311E
:10562000414309EB8102B2FBFAF107EB440227F890
:1056300014009180FFF7A6FE01462046FFF7E6FE24
:10564000641CE4B2022CDBD301202870BDE8F08793
:10565000C000DFE7B800002000080140000C014056
:10566000B43B002010B54FF0E020006902F078FA5A
:10567000012803D0BDE8104001F0A6BF10BD30B531
:1056800093B028216846FAF7EBFE14210AA8FAF72E
:10569000E7FE002501200F95109511950104129544
:1056A0008DE8230004904FF4E010CDE908100224A7
:1056B00007946846FEF712FA08B172B6FEE70AA927
:1056C0000F2081E831004FF48060CDE90D05022103
:1056D0000AA8FEF707F908B172B6FEE74FF40040DA
:1056E00011900F940FA8FEF787F8002801D072B62A
:1056F000FEE713B030BD7047024800218170C170D1
:1057000070470000D40000200148407B7047000033
:10571000D40000200148807C70470000D4000020A5
:105720000148007970470000D400002002488078CA
:1057300000F07F0070470000D40000200248C078CD
:1057400000F07F0070470000D4000020014840793D
:1057500070470000D4000020014800787047000026
:10576000D400002010B5FDF725FF01460248406B2C
:10577000BDE81040FCF7D7BDD400002010B5FDF700
:1057800019FF01460248806BBDE81040FCF7CBBD15
:10579000D400002010B5FDF70DFF0449C969401A77
:1057A0004FF47A71B0FBF1F010BD0000D40000207E
:1057B00010B50C4C6078002811D12078042803D350
:1057C000BDE8104000F010B8FDF7F4FEE169401AA2
:1057D0004FF47A71B0FBF1F0FF2801D9FF2010BD22
:1057E000C0B210BDD400002010B50B4C606A28B1C7
:1057F000FDF7E0FE616A081A002801DC002010BDF8
:10580000FDF7D8FE616A081A4EF65F210844491C6C
:10581000B0FBF1F0C0B210BDD400002010B50B4CAD
:10582000606A28B1FDF7C6FE616A081A002801DC2B
:10583000002010BDFDF7BEFE616A081A4FF47A71B0
:1058400000F2E730B0FBF1F010BD0000D400002002
:1058500070B5134C002525706570FDF7ABFEE06157
:10586000A570E570B12020716571A5712562656232
:10587000A5622575E57125726572A572E5622563DD
:1058800025746574E5726575E574A575FDF792FE7E
:10589000E063E57525762564BDE87040FCF772BBD2
:1058A000D4000020F8B5FDF785FE3D4C00250646E6
:1058B000A570E570FFF75AFC18B1E07840F00400DD
:1058C000E0703046FDF784F8FCF7B2FB3046FCF799
:1058D00031FC207BA8B1E06A98B1301A11D4E5629E
:1058E000FCF7FEFE012220212E48FCF78DFEA07B56
:1058F00008B1012200E000224FF400612A48FCF7C1
:1059000083FE3046FDF786F83046FDF735F8304621
:10591000FCF7CEFF207E78B1FFF728FC38B1257662
:105920002564A5720320FCF765FE657004E0FFF7AF
:1059300037FC08B9FCF732FC606A78B1301A0DD434
:10594000FCF7AAFD10B1FCF7E1FA07E0A07A174ACC
:10595000082817D009281AD0FCF7DCFCA079002809
:105960001CD0206A301AC82818D9BFF34F8F1048AE
:105970000168104A01F4E06111430160BFF34F8FE9
:1059800000BFFDE701230C210B20009503E00C2153
:10599000012308460095FCF7E9FEDFE7F8BD0000AB
:1059A000D4000020000C014000080140C02709007D
:1059B0000CED00E00400FA050148FEF7E6BA00002D
:1059C000580400200148FEF7E0BA00009C010020C6
:1059D000F0B50268194B1A4C1A4D4FF080479842A7
:1059E00005D0B84203D0A04201D0A84203D122F092
:1059F00070064A683243984205D0B84203D0A042AC
:105A000001D0A84203D122F44074CA6822434C69F1
:105A100022F08002224302608A68C2620A688262BF
:105A2000984201D109690163012141610169C907F6
:105A300003D0016921F001010161F0BD002C01409A
:105A4000000400400008004010B501F01F030121D0
:105A5000046A99408C430462016A9A4011430162CE
:105A600010BD30B587B00C4605461C216846FAF7D4
:105A7000F7FC00236020CDE900030293224669462B
:105A800028460493FEF741FB002801D0FDF7CEF82D
:105A900007B030BD30B5036A026A22F0010202622B
:105AA0004268846924F073050C682C4323F00205D6
:105AB0008B682B430A4DA8420BD123F00805CB6815
:105AC00022F440722B434D6923F0040315438A6985
:105AD0002A434260846149684163036230BD00002B
