:020000040800F2
:1000000070430020CD020008634B0008F94100084E
:100010005D49000801280008C959000800000000D7
:100020000000000000000000000000003502000891
:10003000A32900080000000079020008654B0008B1
:10004000E7020008E7020008E7020008E7020008EC
:10005000E7020008E7020008E7020008E7020008DC
:10006000E7020008E7020008E7020008E7020008CC
:100070003D2900084929000855290008E702000821
:10008000612900086D290008E7020008E70200085E
:10009000E7020008E7020008E7020008E70200089C
:1000A000E7020008E7020008E7020008E70200088C
:1000B000CD4E0008D94E0008E7020008E70200080C
:1000C000E7020008E7020008E7020008E70200086C
:1000D000E7020008A5590008B1590008BD590008F9
:1000E000E7020008E7020008E702000800F002F853
:1000F00000F090F80AA090E8000C82448344AAF132
:100100000107DA4501D100F085F8AFF2090EBAE82F
:100110000F0013F0010F18BFFB1A43F0010318473B
:100120005074000070740000103A24BF78C878C181
:10013000FAD8520724BF30C830C144BF04680C60ED
:10014000704700000023002400250026103A28BF35
:1001500078C1FBD8520728BF30C148BF0B60704739
:100160006E2900F04782702900F09183662907F01C
:100170008F80652907F08C80672907F089806129C5
:1001800007F0888003681B0A28BF41F080016929B5
:1001900000F0F481642900F0F181752900F0EE810E
:1001A0006F2900F01E83782900F05D83E92900F0B3
:1001B000B982E42900F0B682F52900F0B382EF2974
:1001C00000F01B83F82900F05C830368DB0928BF7B
:1001D00041F08001632901F09180732901F096803C
:1001E000E32901F0A180F32901F0A68000207047E7
:1001F0001FB501F0F3F804000020002107F032F8E9
:10020000401C60600020002107F016F8E0601FBD70
:1002100010B510BD01F0B4F81146FFF7E9FF05F085
:1002200001FC01F091F903B4FFF7F2FF03BC05F004
:10023000F7FB0000224B19680868B0E8F00F80F364
:100240000988BFF36F8F4FF0000080F311884EF0E4
:100250000D0E70470000000006480068006880F33B
:10026000088862B661B6BFF34F8FBFF36F8F00DFB0
:1002700000BF00BF08ED00E0EFF30980BFF36F8F10
:100280000F4B1A6820E9F00F106008B54FF05000CE
:1002900080F31188BFF34F8FBFF36F8F06F0B0FA72
:1002A0004FF0000080F31188BDE808401968086825
:1002B000B0E8F00F80F30988BFF36F8F704700BF7D
:1002C00020000020EFF305807047000009488047B8
:1002D00009480047FEE7FEE7FEE7FEE7FEE7FEE728
:1002E000FEE7FEE7FEE7FEE704480549054A064B40
:1002F00070470000DD4B0008ED000008703D002055
:1003000070430020703F0020703F002070470000C5
:100310007CB51D4616460C00009001D02044401EBE
:10032000074B7B442A4669460190304600F07BF932
:1003300005461CB10020694600F088F928467CBDBE
:100340003103000010B5431C02E010F8011B71B12D
:100350008107FAD14FF0013202C88C1A8C4314EA9B
:10036000C211F9D0C01A0A0603D0C01E10BDC01AAF
:1003700010BD0A0401D0801E10BD0902FCD0401E31
:1003800010BD032A40F2308010F0030C00F01580FD
:1003900011F8013BBCF1020F624498BF11F801CB88
:1003A00000F8013B38BF11F8013BA2F1040298BFED
:1003B00000F801CB38BF00F8013B11F0030300F057
:1003C0003583083AC0F0088051F8043B083A51F8E8
:1003D00004CBA0E80810F5E7121D5CBF51F8043B00
:1003E00040F8043BAFF30080D20724BF11F8013B73
:1003F00011F801CB48BF11F8012B24BF00F8013BD5
:1004000000F801CB48BF00F8012B704702F0FF0352
:1004100043EA032242EA024200F002B84FF000022F
:100420000429C0F0128010F0030C00F01B80CCF106
:10043000040CBCF1020F18BF00F8012BA8BF20F874
:10044000022BA1EB0C0100F00DB85FEAC17C24BFC8
:1004500000F8012B00F8012B48BF00F8012B704772
:100460004FF0000200B5134694469646203922BF4D
:10047000A0E80C50A0E80C50B1F12001BFF4F7AF98
:10048000090728BFA0E80C5048BF0CC05DF804EB7A
:10049000890028BF40F8042B08BF704748BF20F8E8
:1004A000022B11F0804F18BF00F8012B70477047E6
:1004B00070477047704770B5044685690068C1068B
:1004C00001D5302600E02026C00707D070BDD4E952
:1004D000012130469047206A401C20626D1EF6D5EF
:1004E00070BD70B5044685690078C00707D170BD3E
:1004F000D4E9012120209047206A401C20626D1E13
:10050000F6D570BD09684A0501D540B27047C905E6
:10051000FCD500B2704709684A0501D5C0B27047E2
:10052000C905FCD580B2704770B50C460546012A56
:1005300005D02878800600D5EA69002302E001236F
:1005400005E05B1C934202D2E05C0028F9D1A86967
:10055000E618C01AA861286A184428622846FFF7DE
:10056000AAFF04E0D5E9012114F8010B9047B44239
:10057000F8D32846FFF7B5FF70BD00002DE9F04124
:100580000646002410687529314616A510D0FFF7DD
:10059000B9FF002802DA404213A507E031688A0754
:1005A00001D512A502E0490704D511A5012401E0F7
:1005B000FFF7B1FF00210A2206F1240709E0B0FB92
:1005C000F2FCB0FBF2F302FB1C003030785418460A
:1005D000491C0028F3D123462A463046BDE8F041A5
:1005E00000F09BBA000000002D0000002B0000006E
:1005F0002000000011680268006A530501D50870E8
:100600000AE0D30501D5088006E0130603D5C2171A
:10061000C1E9000200E008600120704701694A1C3E
:1006200002610878704700B58FB0CDE90131002133
:10063000059105497944CDE903101146684600F05B
:1006400031F90FB000BD0000E5FFFFFF0A6802F8B6
:10065000010B0A607047D1E900239A4202D2531C71
:100660000B601070704700002DE9FF5F15468A4649
:100670000446DFF8AC80F8440027D8E900103E4675
:10068000CDE9001010E03AF816106A4602A800F012
:1006900057FE411C07D02178890603D5E269391835
:1006A00091420DD80744761C2078800602D5E06977
:1006B000B84205DDAE42E6DB3AF816000028E2D18A
:1006C000A069C01BA0612046FFF7F5FED8E9001025
:1006D000CDE90010002017E03AF818106A4602A889
:1006E00000F02EFEB0F1FF3F81460BD000250DF14A
:1006F000080B05E0D4E901211BF8050090476D1CAB
:100700004D45F7D308F10100B0428046E4DB206A92
:10071000384420622046FFF7E4FEBDE8FF9F00005A
:10072000DA6C00002DE9F0418046D21D22F007026C
:100730000025D2E90002F52915A614D0011E72F198
:10074000000106DA0023D0EB030063EB020211A6DE
:1007500008E0D8F800108B0701D50FA602E0490782
:1007600001D50EA601251146002408F1240704E056
:1007700000F08EF930323A55641C50EA0102F7D18C
:100780002B46324621464046BDE8F04100F0C5B94F
:10079000000000002D0000002B00000020000000E1
:1007A00030B4002100F1240408E002F00705D2086B
:1007B000303542EA4372DB086554491C52EA0305AE
:1007C000F3D10468002310A2250707D5A40600D49E
:1007D00021B1C46901230DA2641EC46130BC00F0C4
:1007E0009CB910B5044621461068FFF794FE0246F6
:1007F0002046BDE810400023D2E7D21D22F00701B9
:10080000D1E90023CCE70000000000003000000028
:10081000F0B40D460188090502D5214C7C4402E064
:100820001F4C7C440E34002100F1240608E002F045
:100830000F071209E75D42EA03721B097754491C4E
:1008400052EA0307F3D102780023120704D5702D72
:1008500006D009B1022311342246F0BC00F05DB984
:1008600001231034F8E770B504460D4621461068A0
:10087000FFF751FE024629462046BDE8704000239E
:10088000C6E7D21D22F00703D3E90023C0E70368BF
:10089000126843F0200303600823C3610023B7E715
:1008A0003C6B00002DE9F05F894604464FF0000ADA
:1008B000DFF874B1FB44C0F820A02046E168884707
:1008C000002874D0252806D0D4E901219047206A59
:1008D000401C2062F1E700265F462046E168884719
:1008E0002028054607DB312D05D2781910F8200C99
:1008F00008B10643F1E7B00701D526F00406C4F8B5
:100900001CA00027C4F818A02A2D09D0284605F0FD
:1009100080F838B304EB8708303DC8F8185019E068
:1009200059F8041B204604EB87029161E16888476F
:10093000012F054618D1E069002820DA26F02006AC
:100940001DE0D8F8180000EB800005EB40003038BF
:10095000C8F818002046E1688847054605F059F8B0
:100960000028EED1012F0AD02E2D08D12046E168B3
:1009700088477F1C0546022F46F02006C4DBA0698D
:10098000002803DA404246F00106A061F00701D0DA
:1009900026F010066C2D0BD0682D09D04C2D39D0C7
:1009A0006A2D35D0742D35D07A2D33D016E038E04D
:1009B000E1682F4620468847B842054609D16C2F8A
:1009C00026D04FF48060E1680643204688470546FC
:1009D00004E06C2F1AD04FF4807006430DB3A5F1DC
:1009E0004100192802D8203546F400664A462946B7
:1009F000204626604E46FFF7B3FB80B101280BD09E
:100A0000F61D26F0070000F1080956E74020E4E74C
:100A10008020D8E70020D6E706F104094DE72846F4
:100A200052E7206ABDE8F09FCC6A000010B5203A7A
:100A3000C0F00B80B1E81850203AA0E81850B1E897
:100A40001850A0E81850BFF4F5AF5FEA027C24BF4D
:100A5000B1E81850A0E8185044BF18C918C0BDE844
:100A600010405FEA827C24BF51F8043B40F8043B0D
:100A700008BF7047D20728BF31F8023B48BF11F8C2
:100A8000012B28BF20F8023B48BF00F8012B70471C
:100A900030B5B0F10A024FEA900E71F100034EEA50
:100AA000817EB0EB0E0061EB91014FEA101E4EEA21
:100AB000017E10EB0E0041EB11114FEA102E4EEAB1
:100AC000016E10EB0E0041EB11214FEA104E4EEA81
:100AD000014E10EB0E0041EB1141401841F10001B5
:100AE0004FEAD00040EA41704FEAD10110EB800597
:100AF0004FEA810444EA907444EB01046D1944EB1D
:100B00000404521BA3414FF0000348BF0A3200D532
:100B100030BD401C41F1000130BD2DE9F0470D46CC
:100B200099469246044600F124080168880604D5D7
:100B3000E06921F01001216000E00120A84201DD00
:100B4000471B00E00027A1697A1902EB0900081A87
:100B5000A0612078C00602D42046FFF7ACFC002636
:100B600008E0D4E901211AF806009047206A401CE9
:100B7000761C20624E45F4DB2078C0060AD520465C
:100B8000FFF799FC06E0D4E9012130209047206A64
:100B9000401C2062381EA7F10107F4DC07E0D4E90D
:100BA000012118F805009047206A401C2062281E89
:100BB000A5F10105F3DC2046FFF793FC2078000641
:100BC00002D50220BDE8F0870120FBE770472DE940
:100BD000FF4F0C461E464FF0FF378BB0D2E90001A5
:100BE000DDF860800A908A46C1F30A5505B93D4692
:100BF000002108464FF00000BAF1000F00F4400059
:100C000005DA00EB80004FF4400101EA50004FEAA2
:100C10009059B9F1010F00DDB9460A9850EA4A002F
:100C20000ED044F61050A5F2FF3545432F14B8F10D
:100C3000000F1ED07542291E1EDDC9F100021CE006
:100C4000B8F1010F4FF0000001D0302103E0F24372
:100C500005E02154401CB042FBDB3046002200215D
:100C600021540B99C1F80880C1E900200FB0BDE8FC
:100C7000F08FBD1B6D1CDEE74A4600DA694206A80C
:100C800000F0F0FB06AB93E8070003AB83E8070036
:100C900050460A9900F0A6FC8DE80700A0F5005028
:100CA0001F3800900398002D0ADD42F21F014A46CA
:100CB0000844002303A90390684600F00FFF09E0F1
:100CC000A0F500504A461F38002303A90390684648
:100CD00000F019FF8DE807000004000C03D04FF06E
:100CE000FF30410800E01046B8F1000F03D00022A9
:100CF000009215461EE0751E05D4FFF7C9FE30327E
:100D000062556D1EF9D5B3460122084302D0002278
:100D10007F1C04E02078302801D100227F1E002AA9
:100D2000099784D01DE0112D07DAFFF7B1FE3032AC
:100D300062556D1C50EA0102F5D1084302D00098BB
:100D4000C8B10EE00021681E05E0235C625C6354BC
:100D50002254401E491C8142F7DBAB46A81B401EB3
:100D60000990002004F80B000B98099AC0F808803D
:100D7000C0E9002B7AE711264FF0000857E72DE96C
:100D8000F04F88460446D21D22F0070191B0D1E908
:100D90000001CDE90A0104F018FE02460B98C00FCD
:100DA00001D02D2007E02068810701D52B2002E02B
:100DB000202101EAC000032A099001D0072A05DB9F
:100DC00003464146204600F00DFB0BE120788006EB
:100DD00001D5E06900E00620B8F1650F814606D034
:100DE000B8F1660F18D0B8F1670F70D131E000206C
:100DF000B9F1110F009001DB112301E009F10103AA
:100E00000AAA01A90CA8FFF7E2FEDDE90C70002692
:100E100009F10105834647E001204B4600904FF061
:100E200000470AAA01A90CA8FFF7D1FEDDE90DB021
:100E30000C995D46002610B909F101000D18B9EBB7
:100E4000050003D4C0F1FF3609F10105A5EB090047
:100E50002BE0B9F1010F01DA4FF001090020B9F1DF
:100E6000110F0090484601DD112300E003460AAA55
:100E700001A90CA8FFF7ABFEDDE90C704D4600267A
:100E80008346207800070AD4AB4500DA5D4601A806
:100E9000012D04DD411911F8011C302907D04F45FF
:100EA00002DA17F1040F04DA012082460FE06D1E0A
:100EB000EEE7002F02DCED1B3E4403E0781CA84265
:100EC00000DD7D1CB81B00F1010A4FF000472078BF
:100ED000000703D4AA4501DB4FF0FF3A0021B7F128
:100EE000004F0DF143088DF8431024D002202B232E
:100EF000002F01DA7F422D230A21021EA0F10100FA
:100F000000DC5FB197FBF1FC97FBF1F201FB1C7C6D
:100F100017460CF1300C08F801CDEEE7A8F10100FE
:100F200003702188090501D5452100E06521A0F164
:100F3000010800F8011C09980FA9A1EB0807FF1D83
:100F400000B10120411901EBEA70A1693844081A87
:100F5000401EA0612078C00602D42046FFF7ABFAFD
:100F6000099828B1D4E901219047206A401C2062E9
:100F70002078C00622D52046FFF79DFA1EE0002EFD
:100F800004DBB34502DD01A8805D00E03020D4E938
:100F900001219047206A401C2062761CAAF10100C2
:100FA0005FEA000A0AD100F019FAC0680168405CE3
:100FB000D4E901219047206A401C2062281EA5F137
:100FC0000105DCDC07E0D4E9012118F8010B9047AA
:100FD000206A401C2062381EA7F10107F3DC20467E
:100FE000FFF77FFA032011B041E600002DE9F04F32
:100FF00004460D46D21D22F0070089B0D0E90097C3
:101000004846394604F0E1FC0246F80F01D02D2392
:1010100007E02068810701D52B2302E0202101EAA7
:10102000C0038DF820300BB1012000E00020032A1E
:10103000824601D0072A04DB2946204600F0D2F977
:101040003FE12078800601D40D2500E0E569C7F373
:101050000A560D2D49DA00214FEA175B08464FF07A
:101060000000002F00F4400007DA00EB80004FF48E
:10107000400100EBD07001EA60008115012901DD1B
:101080004FF0FF3100224FEA850CBCF1180F06D358
:101090001346ACF118004FF08052C24003E04FF409
:1010A000801323FA0CF30CF10C0CBCF1200F04D3C9
:1010B000ACF1200C09FA0CF001E007FA0CF0002961
:1010C0004FF0004801DD18B90FE00ED140450CD3B8
:1010D00019EB02095F4121B9404502D19F4329EA3A
:1010E0000209BBEB175F00D0761C2088000502D5F3
:1010F0007B48784402E07A487844193808AA3023BB
:1011000002F80A30037C0AF10101002E0AF1020AFA
:1011100053546A4602DC4FF0300101E04FF03101D8
:101120004FF001088DF8001002D0A6F2FF3603E060
:1011300059EA470100D06B4E002D02DC21780907E7
:1011400004D54FF002082E218DF80110C44600216D
:101150000BE0C7F303433F01C35C491C6D1E02F85B
:101160000830052908F1010801DA002DF1DC002121
:101170000CE000EB1973491C1B786D1E082902F85E
:1011800008304FEA091908F1010801DA002DF0DCF6
:1011900021688B0602D516E0A8F10108E04505DDBF
:1011A00002EB080313F8013C302BF5D0B8F1000F27
:1011B00009DD02EB080313F8013C2E2B03D10907CC
:1011C00001D4A8F10108002D05DD3E2102F8081028
:1011D0006D1E08F10108407C002E02F8080008F19D
:1011E000010804DA2D20764202F8080002E02B20E4
:1011F00002F808000A214FF47A70864208F10108CB
:101200000BDB96FBF0F3303302F8083096FBF0F37B
:1012100008F1010800FB136601E0642E0CDB64207A
:1012200096FBF0F3303302F8083096FBF0F308F148
:10123000010800FB136601E00A2E06DB96FBF1F0C5
:10124000303002F8080008F1010896FBF1F001FBCC
:101250001060303002F80800A16908F1010808EBBD
:10126000050202EB0A00081AA0612078C00602D429
:101270002046FFF720F9216A08AE01EB0A00206240
:1012800004E0D4E9012116F8010B9047BAF1010AF4
:10129000F7D22078C00602D52046FFF70CF96E463B
:1012A00009E016F8010B3E280FD0D4E90121904740
:1012B000206A401C2062B8F10108F2D22046FFF7F4
:1012C00010F909B00320BDE8F08F206A284420629D
:1012D00003E0D4E90121302090476D1EEBD3F8E7FD
:1012E000B262000002FCFFFF10B5436913B1AFF317
:1012F000008001E0FFF718F9012010BD127800F11D
:1013000024010A7000224A700122EDE711684FF0B3
:10131000FF32E9E710B5436913B1AFF3008001E094
:10132000FFF7A2F9012010BD128800F12401828488
:101330000022C2840122EDE711684FF0FF32E9E795
:1013400070B516460C46054600F040F8036893F861
:101350000101012806D0FF2C0FD8185D68B10120CB
:101360002C7070BDD3F807013246214603F20713F3
:1013700003442846BDE8704018474FF0FF3070BD69
:10138000754600F0EBF8AE4605006946534620F07E
:101390000700854618B020B5FEF7A6FFBDE820403F
:1013A0004FF000064FF000074FF000084FF0000B21
:1013B00021F00701AC46ACE8C009ACE8C009ACE8D4
:1013C000C009ACE8C0098D467047000010B500F0B8
:1013D00005F8001D10BD00BF8D5E0000004870477D
:1013E0002C3D00202DE9F0411F46044603260168EC
:1013F000072A01F4006004DB08B116A505E016A574
:1014000003E008B115A500E015A521F0100020604B
:10141000A069C01EA0610FB1401EA0612046FFF769
:101420004AF84FB1D4E9012138469047206A401C60
:101430002062C01C206206E0206AFAE7D4E901219C
:1014400015F8010B9047761EF8D22046FFF749F8B1
:10145000BDE8F0814E414E006E616E00494E46007F
:10146000696E66002DE9F047814616468AB0354818
:1014700078440DC88DE80D0032487844801C03ACD8
:101480000DC884E80D0041F69B300844372190FBDD
:10149000F1F290FBF1F5A5F1800501FB12041B3C74
:1014A00002D56442012000E00020DFF898A08046C9
:1014B0000027FA44AAF1BE0A0EE0E0070AD032463D
:1014C000684607EB470101230AEB810100F01BFB93
:1014D0008DE8070064107F1C002CEED1194F7F446B
:1014E000AE3F19E0E80715D007EB04100DF1180A1C
:1014F00090E80E008AE80E00C068F04201D1981909
:1015000008903246012306A903A800F0FCFA03ABB9
:1015100083E807006D10641C002DE3D14FF0010338
:1015200032466946B8F1000F03A802D000F0D6FA9F
:1015300001E000F0E8FAC9E90001C9F808200AB0A2
:10154000BDE8F087C45F000010B50446AFF300802B
:101550002046BDE81040FEF766BE00000048704718
:101560000C3D00204FF0013C50F8042B51F8043B97
:101570009A4221D1A2EB0C03934313EACC1317D167
:1015800050F8042B51F8043B9A4215D1A2EB0C03FE
:10159000934313EACC130BD150F8042B51F8043BBE
:1015A0009A4209D1A2EB0C03934313EACC13DBD08C
:1015B0004FF00000704700BFD01A01BAB1FA81F1B4
:1015C00001F0180122FA01F0CB40C1F12001DBB299
:1015D000C0B2C01A2CFA01F3D11A914311EAC31117
:1015E000E6D170475FEA400C08BF91F0000F4FEA68
:1015F0008C234FEAC12243EA51514FEA1C5018BFD5
:1016000000F5F0404FEA300018BF41F000415FEABA
:101610006C5C00F02980BCF1FF3F08BF40F08040C7
:101620007047130C06BF12044FF0100C4FF0000C63
:10163000130E04BF12020CF1080C130F04BF1201A9
:101640000CF1040C930F04BF92000CF1020CD30FA9
:1016500004BF52000CF1010C11464FF00002A0F142
:101660001F00A0EB0C00704711F0004F08BF70473F
:1016700031F000413FF4D5AF0B0C06BF09044FF029
:10168000100C4FF0000C0B0E04BF09020CF1080CFB
:101690000B0F04BF09010CF1040C8B0F04BF890070
:1016A0000CF1020CCB0F04BF49000CF1010CCCF182
:1016B0002003A0EB0C0022FA03F302FA0CF241EA39
:1016C000030100F10100704720F07F4C80EA030025
:1016D00023F07F47ACEB070303F57C5300F0004099
:1016E00003F1FF032DE980494FEA154B09B44FEA96
:1016F000144325EA0B4E24EA03480FF2042606EBB6
:10170000132749083E785FEA320203FB0667C7F5F4
:10171000000707FB06F64FEA54374FEAD64606F1B4
:10172000020607FB066CCCF1005C4FEA1C472CEA72
:10173000074C07FB06F40CFB06F504EB15464FEAD5
:10174000961634BF00204FF000404FEAD13706FB19
:1017500007FC4FEA1C4C0CFB0BF7D21B03FB0CF7EE
:1017600061EB07010CFB0EF7B0EB074072EB174281
:101770000CFB08F734BFA2EB0742B2EB074261EB68
:1017800017414FEA0C444FEA910706FB07FC4FEA6A
:101790001C4C0CFB0BF7B0EBC74072EB573203FB52
:1017A0000CF734BFA2EBC742B2EBC74261EB573133
:1017B0000CFB0EF7B0EBC70072EB57720CFB08F78F
:1017C00034BFA2EBC702B2EBC70261EB5771039FB4
:1017D0004FEA816141EA921104EBCC044FEAD13720
:1017E0004FEA826206FB07FC42EA90124FEA8060F1
:1017F0004FEA1C4C0CFB0BF7D21B03FB0CF761EB05
:1018000007010CFB0EF7B0EB074072EB17420CFB25
:1018100008F734BFA2EB0742B2EB074261EB174176
:101820004FEA8C554FEA910704EB9C2406FB07FC1A
:101830004FEA1C4C0CFB0BF7B0EBC74072EB573276
:1018400003FB0CF734BFA2EBC742B2EBC74261EB1C
:1018500057310CFB0EF7B0EBC70072EB57720CFB65
:1018600008F734BFA2EBC702B2EBC70261EB5771B6
:1018700015EB4C254FEA816141EA92114FEA8262F1
:101880004FEAD13742EA901206FB07FC44F100040C
:101890004FEA80604FEA1C4C0CFB0BF7D21B03FB9A
:1018A0000CF761EB07010CFB0EF7B0EB074072EB96
:1018B00017420CFB08F734BFA2EB0742B2EB07421A
:1018C00061EB174115EB1C154FEA813141EA92415A
:1018D0004FEA823242EA90424FEA80304FEA0C7679
:1018E00044F1000448EA03434EEA0B484FF0000E6F
:1018F000B2EB080C71EB030724BF624639464EEB8E
:101900000E0E4FF0000B0018524149414BEB0B0BF0
:10191000B2EB080C71EB03077BF1000B24BF6246AE
:1019200039464EEB0E0E4FF0000B00185241494164
:101930004BEB0B0BB2EB080C71EB03077BF1000BCD
:1019400024BF624639464EEB0E0E51EA020718BF1D
:1019500046F0010616EB0E7655F1000254F1000137
:1019600003D5BDE88901BDE80088BDE88901BDE86F
:101970000048B619524141EB0101A3F10103704740
:1019800080807F7E7D7C7B7A7978777676757473BC
:10199000727171706F6E6E6D6C6C6B6A6A6968687B
:1019A000676666656464636362616160605F5F5E11
:1019B0005E5D5D5C5C5B5B5A5A5959585857575687
:1019C00056555555545453535252525151505050EC
:1019D0004F4F4F4E4E4D4D4D4C4C4C4B4B4B4A4A3E
:1019E0004A49494948484847474747464646454582
:1019F00045444444444343434342424242414141BB
:101A0000002B9C4630D477002BD01CB54FEA37070B
:101A100003B44FF010004FF01001BAF1000F06D0E0
:101A2000BCF1000FDCBF40F0080040F008014FF0AF
:101A300000000FBCBDE810400BF1010BBBF1010F22
:101A400008BF5FEA170722BF12F1010211F101017D
:101A50004FF0004143F1000300F0004043EA000072
:101A60007047F9D35708D0E746EA064613F1400F0E
:101A70004FEA16461FDD13F1200FDFBF16430A465B
:101A8000002120335B42BED0C3F1200746EA064660
:101A900002FA07F74FEA164646EA0706C3F120079F
:101AA00022FA03F201FA07F721FA03F14FF00003DB
:101AB00042EA0702A7E746EA020646EA06464FEA76
:101AC000164646EA0106BCBF46EA0646360C4FF00B
:101AD00000034FF000024FF0000194E72DE9804C25
:101AE0009A46934670B491E8380007C831EA400C32
:101AF00048BF34EA430C03D5FFF7E6FDFFF780FF4C
:101B0000F0BCBDE8008C2DE9804C9A46934670B439
:101B100091E8380007C810F0804F08BF13F0804FDD
:101B200003D100F005F8FFF76BFFF0BCBDE8008CB7
:101B300020F07F4780EA030023F07F4C07EB0C0383
:101B4000A3F57C5300F00040A3F1FE0392F0000FD8
:101B500000F0B38095F0000F00F077802DE9014987
:101B60004FEA11404FEA144621EA004800FB06FC08
:101B700024EA064708FB06F607FB08F800FB07F710
:101B800018EB06484CEB164C4FEA124B18EB074883
:101B90004FEA15464CEB174022EA0B4E0BFB06FCB6
:101BA00025EA06470EFB06F607FB0EFE0BFB07F7C2
:101BB0001EEB064E4CEB164C4FF000061EEB074E8C
:101BC0004CEB174B18EB0B0840F1000018EB0E0B19
:101BD00058EB000840F100008F1A4FF000013CBFA5
:101BE000C943661B14BFB5EB040C00213CBFC943BD
:101BF000F61B4FEA17444EEA8E0E27EA04454FEAD9
:101C00001C4704FB07622CEA074C05FB07F70CFB9B
:101C100005F604FB0CFC16EB074642EB174216EBED
:101C20000C4642EB1C421BEB060658EB02024141FC
:101C300046EA9E0601D5BDE80189B619524141EB3D
:101C40000101A3F10103BDE801894FEA14454FEA00
:101C5000114724EA054621EA074C05FB07F406FB79
:101C600007F70CFB06F105FB0CFC11EB074144EBFD
:101C700017444FEA124711EB0C4144EB1C4422EA93
:101C8000074C05FB07F206FB07F70CFB06F605FB06
:101C90000CFC16EB074642EB174216EB0C4642EBE8
:101CA0001C456A1854F1000148BF7047B6195241EB
:101CB00041EB0101A3F10103704795F0000F37D00C
:101CC0004FEA11424FEA144721EA024624EA074C40
:101CD00002FB07F106FB07F70CFB06F402FB0CFC0A
:101CE00014EB074441EB17414FEA154714EB0C4442
:101CF00041EB1C4125EA074C02FB07F506FB07F701
:101D00000CFB06F602FB0CFC16EB074645EB1745F1
:101D100016EB0C4645EB1C42121951F1000148BF6D
:101D20007047B619524141EB0101A3F1010370471D
:101D30004FEA14454FEA114724EA054621EA074CC9
:101D400005FB07F106FB07F70CFB06F24FF0000658
:101D500005FB0CFC12EB074241EB174112EB0C4266
:101D600051EB1C4148BF7047921841EB0101A3F1B0
:101D70000103704703F092FB322003F077FEF9E78E
:101D80004FF47A7402F018FB204603F06FFEF9E777
:101D900002F0E6FE142003F069FEF9E702F0F6FF18
:101DA000322003F063FEF9E738B51C490020012317
:101DB0008C7A4EF66022062C2BD2DFE804F02A0340
:101DC0000C131C21CA794EF6602000934243022373
:101DD0000721184603E0009001230821032000F0AA
:101DE00093FB38BD0A7A4EF66020009342430323EA
:101DF00009210420F3E701230A2100900520EEE7E2
:101E00004A7A4EF660214A4304230B2100900620B3
:101E1000E5E7BDE8384000F0ABB90000B8000020AD
:101E200070B5224C00220121204600F0D7FA002292
:101E30000221204600F0D2FA1D4C0022202120462B
:101E400000F0CCFA00221021204600F0C7FA002250
:101E50000821204600F0C2FA0022A114204600F01A
:101E6000BDFA00226114204600F0B8FA00224FF4B7
:101E70008041204600F0B2FA00224FF40041204693
:101E800000F0ACFA02F040FE0A4D0024EC75EC6361
:101E90002C736C73AC73EC73AC62EC622C746C746A
:101EA00000F0C0FB00F008FD6C7570BD000801403B
:101EB000000C0140B800002010B50021012000F006
:101EC00043FA00235022BDE810402821184600F0B4
:101ED000F9BC10B50121084600F036FA00231E2295
:101EE000BDE810404621184600F0ECBC10B50021BA
:101EF000084600F029FA00231422BDE810401146DC
:101F0000184600F0DFBC000070B504003BD01F4D48
:101F10001F4E2021E87A2071304600F0B5FF0128DD
:101F200000D000202074E8796074287AA074687A60
:101F3000E07402F08BFE207502F094FE60754FF4A1
:101F40008041304600F0A0FF012800D00020A0759D
:101F50002878E07502F0A0FE207602F05BFE607645
:101F600002F060FEA076617E01B908B1042009E0AC
:101F700028780B2805D00F2803D0042804D302208A
:101F800000E00320E07670BD0020FBE7B8000020F1
:101F9000000C014070B5164C217B002926D0E16A67
:101FA000002923D0401A21D4002525736573A57319
:101FB000E573A562E562257465742A4620210D4803
:101FC00000F00CFA002201210B4800F007FA00F0A3
:101FD00029FBA07A0D2809D1A5720320256200F003
:101FE000F3F96570BDE8704000F066BC70BD00009C
:101FF000B8000020000C0140000801402DE9F04726
:10200000574C00250126E07DDFF85881564FE575D5
:102010004FF48049082874D2DFE800F09F04222B97
:102020004A747C8700222021404600F0D7F9002224
:102030000121384600F0D2F900224946404600F01E
:10204000CDF901221021404600F0C8F90023657542
:102050003C221946184600F035FC4448E06349E04C
:10206000A07A022802D0FFF734FF43E0FFF724FFF5
:102070001CE000221021404600F0B0F9012220218E
:10208000404600F0ABF901221146384600F0A6F9AF
:1020900000224946404600F0A1F900231A462821B3
:1020A000502000F00FFCA07A042823D1667521E0AF
:1020B00000222021404600F091F9002210214046E4
:1020C00000F08CF900220121384600F087F9002247
:1020D0004946404600F082F902F016FD0122022135
:1020E000384600F07BF91423657500221946462016
:1020F00000F0E8FB00F0D2FE6062E16B0844206271
:1021000024E02AE002F000FD00F0D6FB6575A57220
:10211000032006E002F0F8FC00F0CEFB6575A57226
:10212000022000F051F965700EE002F0EDFC02F0C3
:1021300057FDA572012000F047F9002365701A468B
:102140003221184600F0BEFB65622562E56300F0AF
:10215000A5FEBDE8F04700F0D7BABDE8F087000063
:10216000B8000020000C014000080140C027090011
:1021700008B50020052302460321009000F0C4F9B1
:1021800008BD10B1401A002801DC002070474FF450
:102190007A7100F2E730B0FBF1F0FF2801D9FF209F
:1021A0007047C0B27047000010B5134C217B99B145
:1021B000017C61738179A1730021E173A16A19B176
:1021C000017D2174407D6074012220210B4800F0C4
:1021D00005F9A06A20B107E0BDE8104000F002B99F
:1021E000A07B08B1012200E00022BDE810400121DF
:1021F000034800F0F3B80000B8000020000C0140D4
:1022000000080140F8B5002853D02E4CC3780127B0
:102210002371417CE171867C2672C27C627200244B
:10222000B03B4EF660250A2B43D2DFE803F0050AE7
:102230000E121B212A333B43062300220221009465
:1022400034E0BDE8F840FFF793BFBDE8F840FFF782
:10225000ABBF1DA002F027F801232A460C21184627
:10226000009424E001230C212A46072000941EE05C
:102270004EF6602001FB00F202230D21082000979A
:1022800015E04EF6602006FB00F203230E21092024
:1022900000970CE04EF66020424304230F210A20F1
:1022A000009404E00723002201210094002000F0A4
:1022B0002BF9F8BD00F01CF80028FAD007A001F0B7
:1022C000F2FFBEE7B80000204175746F20636C65B3
:1022D000616E2073746172740D0A00004175746F31
:1022E00020636C65616E2073746F700D0A000000CE
:1022F0000448807A401E052801D80120704700203C
:1023000070470000B80000200148407D7047000081
:10231000B80000200148C07A70470000B8000020D3
:102320000849CA7A00B10120C8724871002A07D052
:10233000002805D1487D097B084301D0FFF718BF6D
:1023400070470000B800002070B505460C000CD0A6
:10235000124EB07D400707D400F0A0FDB16B401ACB
:1023600041F28831884200D300240D4E0022102112
:10237000304600F033F82A462021304600F02EF88F
:1023800000220121074800F029F822463046BDE826
:1023900070404FF4804100F021B80000B8000020E8
:1023A000000C01400008014010B50A21B1EBD00F2C
:1023B00006D1044C07218143A17500F06FFDA06395
:1023C00010BD0000B800002010B5034C207000F0D4
:1023D00065FDA06110BD0000B800002002B101221F
:1023E00000F057BD2DE9F041274C0646274FE07B12
:1023F000DFF89C800025B0B1307CA0B1E17C91B1C8
:10240000A17C88420FD8002220213846FFF7E6FF42
:10241000002201214046FFF7E1FFA562E562257435
:102420006574BDE8F081FFF7FBFC01202073307C70
:102430006073B079A073E57300F030FD41F288312C
:102440000844A06200F02AFD12490844E062307D91
:102450002074707D60740D20A0720420FFF7B4FF1B
:1024600065700122202138462562FFF7B7FF002260
:1024700001214046FFF7B2FFBDE8F04100235022A2
:102480002821184600F01EBAB8000020000C0140B8
:1024900000080140A0BB0D0070B500F0FFFC184C17
:1024A0000546002020636063207C164E4FF4805167
:1024B00010B1A27DD20713D000223046FFF78EFF65
:1024C000607C4FF40051A0B1A27D920711D400EBC3
:1024D0004002C2EBC01005EBC0000122606309E0BE
:1024E00000EB4002C2EBC01005EBC00001222063EC
:1024F000E3E700223046BDE87040FFF76FBF000001
:10250000B8000020000C01402DE9F047294C174687
:102510008A4680461E46002220212046DDF8209073
:10252000FFF75CFF002210212046FFF757FF224DE6
:10253000002201212846FFF751FF002202212846F0
:10254000FFF74CFF002208212046FFF747FF00223B
:10255000A1142046FFF742FF002261142046FFF736
:102560003DFF00224FF480412046FFF737FF002255
:102570004FF400412046FFF731FF00F053F80F4CB5
:1025800000255046657525736573A573E573A562CF
:10259000E5622574657484F80A80FFF715FF65709D
:1025A000256265622575E6754846E763BDE8F04734
:1025B00002F0FAB9000C014000080140B800002008
:1025C00070B5154DA87B08B1012600E00026002457
:1025D0002C73AC730120E873AC62EC622C746C74E5
:1025E000224620210D48FFF7F9FE002201210C4868
:1025F000FFF7F4FEA87A0D280CD1AC722C620EB154
:10260000052000E00620FFF7DFFE6C70BDE870409B
:1026100000F052B970BD0000B8000020000C01406D
:102620000008014010B509490020094C08634863BF
:1026300002464FF480512046FFF7D0FE002261147D
:102640002046BDE81040FFF7C9BE0000B8000020DA
:10265000000C014012498A7A022A20D1CA7D002A40
:102660001DD1496A00291AD0401A42F210718842DD
:1026700013D343F69821884207D344F62061884259
:1026800009D346F2A811884201D2FFF722BC47F2D3
:102690003051884201D2FFF729BCFFF70DBC7047CB
:1026A000B800002070B5002827D0C178002924D1B7
:1026B000124C41790122A174E2748579207BB0B17A
:1026C000607B814202D3FFF77BFF10E001222021D3
:1026D0000B48FFF783FE0B48A16A09B1002203E013
:1026E000A17B8D42FAD201220121FFF777FE00F093
:1026F000D5FBBDE8704000F007B870BDB800002001
:10270000000C01400008014070B5134C0546A17A49
:10271000012909D0032907D0052905D0072903D0AD
:102720000B2901D00C2915D1E07C0126002811D0FD
:10273000E07D00280ED11021084800F0A5FB0128FB
:1027400008D1A07C217D084304D142F21070267587
:102750002844206270BD0000B8000020000C014039
:1027600010498A7D02F00702D30703D08B7843F02B
:1027700001038B70930703D58B7843F002038B70B2
:10278000520703D58A7842F004028A708A6B801A55
:1027900041F28832904203D3887840F00800887074
:1027A00070470000B80000202DE9F041124C0546AA
:1027B000124F206B002658B1281A02D5A07DC00701
:1027C00006D000224FF4805138462663FFF706FEFC
:1027D000606B00280DD0281A02D5A07D800708D58F
:1027E00038466663BDE8F04100224FF40051FFF720
:1027F000F5BDBDE8F0810000B8000020000C0140EC
:10280000FEE7000010B50B4C2079002811D0E178CC
:10281000002000F073F8A178042000F06FF86178D0
:10282000082000F06BF82178BDE810400C2000F083
:1028300065B810BDA0000020642800D9642070474E
:102840000549C9684A1C42436420B2FBF0F0884243
:1028500000D90846704700009801002030B5074CA9
:1028600008B12578057009B1607808700AB1A078C0
:102870001070002B01D0E078187030BDA00000204F
:102880000B4910B50120087100210A4801F00CF92C
:102890000421084801F008F90821064801F004F96C
:1028A0000C21044801F000F9BDE81040FFF7AABF71
:1028B000A00000209801002000231A46194618465F
:1028C000AFF300802DE9F0411D4616460F46FFF795
:1028D000B3FF094C20703846FFF7AEFF60703046FA
:1028E000FFF7AAFFA0702846FFF7A6FFE070BDE83B
:1028F000F041FFF787BF0000A000002010B50E4C8C
:1029000048B104280DD00828084610D0FFF798FFDA
:102910002168086410BD0846FFF792FF21684863EC
:1029200010BD0846FFF78CFF2168886310BDFFF7D4
:1029300087FF2168C86310BD98010020014800F09E
:10294000A3B80000C8030020014800F09DB80000B3
:1029500084030020014800F097B80000B80200206E
:10296000014800F091B80000FC020020014800F08E
:102970008BB800004003002030B590F8405001248F
:10298000AC40C56B6C60046863604368102B0368DF
:1029900003D099600068C26030BD9A600068C16071
:1029A00030BD704772B6FEE710B590F821100022D6
:1029B000022905D00421816380F82020012010BD68
:1029C00001680B6823F00E030B6001680B6823F0AD
:1029D00001030B6090F84030C46B012101FA03F34E
:1029E000636080F8211080F82020104610BD0000A0
:1029F00010B590F821100024022903D0042181632E
:102A000001243DE001680A6822F00E020A600168B4
:102A10000A6822F001020A601A4A0168914201D153
:102A2000012121E0174A1432914201D110211BE00B
:102A3000144A2832914201D1891515E0114A3C32DD
:102A4000914201D189140FE00E4A5032914202D1D5
:102A50004FF4803108E00B4A6432914202D14FF4C6
:102A6000801101E04FF08071064A083A516001215F
:102A700080F82110002180F82010416B01B18847B7
:102A8000204610BD080002402DE9F05FC16B0C68C4
:102A900001680B68D0F840C0042202FA0CF2494DDC
:102AA000DFF824A1494E4A4FDFF828B1DFF828E1CA
:102AB00022422CD05A072AD50A68920603D40A6803
:102AC00022F004020A600168A94201D1042219E03F
:102AD000514501D1402215E0B14202D14FF480624C
:102AE00010E0B94202D14FF480420BE0594502D1C7
:102AF0004FF4802206E0714502D14FF4800201E0DC
:102B00004FF080622F4908394A60C16A3BE04FF0BC
:102B1000020808FA0CF818EA040F4FF000094FF009
:102B2000010235D05FEA837832D50B689B0605D465
:102B30000B6823F00A030B6080F821200168A9428A
:102B400001D1022219E0514501D1202215E0B14204
:102B500002D14FF4007210E0B94202D14FF400529A
:102B60000BE0594502D14FF4003206E0714502D125
:102B70004FF4001201E04FF00072124908394A6028
:102B800080F82090816A00291AD0BDE8F05F0847DC
:102B9000082505FA0CF5254212D01B0710D50B6845
:102BA00023F00E030B6090F84010C36B02FA01F1A2
:102BB0005960826380F8212080F82090016BE2E761
:102BC000BDE8F09F080002401C00024030000240B7
:102BD00044000240580002406C00024030B528B367
:102BE00008C8134914221944B1FBF2F18900C163EA
:102BF00010498163022141771A6843F6F0718A43D4
:102C0000D0E900142143D0E902452C432143046953
:102C10002143446921438469214311431960002100
:102C20004163012242770177084630BD012030BD63
:102C3000F8FFFDBF0000024070B5044690F8200088
:102C4000002501280CD0012084F8200094F8216090
:102C50000020012E06D084F820000225284670BDF1
:102C6000022070BD022684F82160A06320680668F7
:102C700026F0010606602046FFF77EFEE06A002887
:102C80002068016802D041F00E0106E021F0040145
:102C900001602068016841F00A0101602068016854
:102CA00041F001010160D9E72DE9F84FDFF8B89153
:102CB0000024A9F1040B23460F2709F1040AABF104
:102CC000040EC9E00125A5402A40AA427DD1674EE5
:102CD000D1F804C0ACEB0608B44532D014DCBCF12A
:102CE000030F3AD009DCBCF1000F2AD0BCF1010F70
:102CF0001CD0BCF1020F31D11DE0BCF1110F17D077
:102D0000BCF1120F2AD119E0B8F5881F19D006DCE2
:102D1000B8F5803F15D0B8F5801F1FD111E0B8F588
:102D2000001F0ED0B8F5041F18D10AE0CB6815E0DB
:102D3000CB681B1D12E0CB6808330FE0CB680C3367
:102D40000CE08B682BB1012B4FF0080303D04561D9
:102D500004E0042302E0056100E00023FF2A01D81B
:102D6000064601E000F104064FEA840501D9A5F109
:102D70002005D6F8008007FA05FC28EA0C0803FABB
:102D800005F548EA0508C6F800804D68ED0062D5F3
:102D9000374DAE6946F00106AE61AD6924F0030619
:102DA00005F001050095334D06EB050CDCF80850E5
:102DB000A607360F07FA06F825EA0805DFF8B880F7
:102DC000404503D14FF0000817E044E0DFF8AC8045
:102DD000404502D14FF001080FE0DFF8A4804045E4
:102DE00002D14FF0020808E0DFF89880404502D198
:102DF0004FF0030801E04FF0040808FA06F848EA2B
:102E00000508CCF808804D68D9F80060ED024D4601
:102E100001D5164300E096432E604D68DAF8006055
:102E2000AD02554601D5164300E096432E604D682D
:102E3000DBF80060AD035D4601D5164300E0964324
:102E40002E604D68DEF80060ED03754601D516432F
:102E500000E096432E60641C0D682A46E5407FF42E
:102E600031AFBDE8F88F00000804014000001110E8
:102E7000001002400000014000080140000C014029
:102E800000100140001401408068084000D001207B
:102E900070470AB1016170470904FBE70148806887
:102EA0007047000010000020024881680278114439
:102EB0008160704710000020074810B5016841F09C
:102EC00010010160032000F0A7F80F2000F006F8C1
:102ED00000F050F8002010BD0020024030B505463B
:102EE000204887B0C16941F00101C161C06906A9EC
:102EF00000F00100009001A800F036F90498B8B184
:102F000000F052F9400018494FF08042B0FBF1F157
:102F10001648491E0260416040F2E7320021C0E9D4
:102F200003218160816100F075FB040003D015E08E
:102F300000F03AF9E7E70D4800F09AFB04000DD1E4
:102F40001C2000F03BF8102D07D2002229461C203F
:102F500000F042F80648056000E0012407B0204672
:102F600030BD00000010024040420F000C04002061
:102F7000140000200F4808B5816941F0010181610A
:102F8000816901F001010091C16941F08051C16185
:102F9000C069002200F0805000900F21901E00F0C8
:102FA0001BF80548416821F0E06141F00071416083
:102FB00008BD00000010024000000140002809DBAD
:102FC00000F01F02012191404009800000F1E02043
:102FD000C0F8001170470000F0B40E4B1B680C469F
:102FE000C3F30223C3F10705042D00D90425191DDD
:102FF000072901D2002300E0DB1E012606FA05F1B5
:10300000491E214099409E40761E16403143F0BC37
:1030100002F0EFBC0CED00E0064900F00702086882
:103020004FF6FF03184040EA0220034A10430860AD
:10303000704700000CED00E00000FA052DE9F047B4
:103040000F46050061D0434E306800F00700B842DB
:1030500009D2306820F0070038433060306800F053
:103060000700B84251D128683B4C810712D5400770
:1030700003D5606840F4E06060602878000703D5FD
:10308000606840F4605060606068A96820F0F000FB
:10309000084360602878C00728D06868012810D0ED
:1030A0002168022810D0890700292EDA616821F0F2
:1030B000030101436160FFF7F1FE804641F2883968
:1030C0000DE021688903EFE78901EDE7FFF7E6FEF0
:1030D000A0EB0801494502D90320BDE8F0876068EC
:1030E000696800F00C00B0EB810FEFD1306800F0A0
:1030F0000700B8420BD9306820F007003843306031
:10310000306800F00700B84201D00120E5E72878D8
:10311000400705D56068E96820F4E0600843606016
:103120002878000706D56068296920F4605040EAD5
:10313000C100606000F058F86168084AC1F30311EB
:10314000515CC8400649086006480068FFF7C6FEA3
:103150000020C2E700200240001002403A7300083D
:103160001C000020140000200F2202600C4A53684B
:1031700003F003034360536803F0F0038360536874
:1031800003F4E063C36052684FF4E06303EAD202E1
:1031900002610448006800F0070008607047000002
:1031A00000100240002002400448054900684968B8
:1031B000044AC1F30221515CC84070471C00002042
:1031C000001002404A730008044805490068496835
:1031D000044AC1F3C221515CC84070471C00002062
:1031E000001002404A7300080E4A51680E4801F070
:1031F0000C03042B11D0082B0FD10C48C1F38343CF
:10320000C903C05C0AD55168084AC1F34041921E07
:10321000515C054A5043B0FBF1F070470449484304
:10322000704700000010024000127A002A73000864
:1032300000093D002DE9F84F040070D02078C04D02
:10324000C00749D06868C0F38100012807D06868CA
:10325000C0F38100022809D16868C00306D5286838
:10326000800339D560680028E7D035E06068B0F5A4
:10327000803F0BD010B1B0F5A02F11D0286820F4FA
:1032800080302860286820F4802002E0286840F41C
:1032900080302860606890B1FFF700FE06460AE0C3
:1032A000286840F480202860F0E700BFFFF7F6FDB3
:1032B000801B642873D828688003F7D50CE0FFF7DB
:1032C000EDFD064605E000BFFFF7E8FD801B642822
:1032D000F0D828688003F7D420789A4E80074FF002
:1032E00001094FF0000839D5686810F00C0F07D0BD
:1032F0006868C0F38100022809D16868C00306D459
:103300002868800714D52069012808D110E02069B9
:10331000B0B1C6F80090FFF7C1FD074605E00AE12D
:10332000FFF7BCFDC01B0228C4D828688007F7D56A
:103330002868616920F0F80040EAC10028600DE0CB
:10334000C6F80080FFF7AAFD074604E0FFF7A6FDD8
:10335000C01B022823D828688007F7D420780007EC
:103360002CD57948A169D9B1C0F80090FFF796FD36
:10337000074604E0FFF792FDC01B02280FD8686AD9
:103380008007F7D571484FF4FA510068B0FBF1F0AF
:10339000009000BF0098411E0091FAD20EE080E03C
:1033A000C0F80080FFF77AFD074604E0FFF776FDDE
:1033B000C01B022875D8686A8007F7D420784007B8
:1033C00060D5E8690027C00008D4E86940F0805063
:1033D000E861E869012700F0805000905C480168CE
:1033E000C90513D40168834641F480710160FFF779
:1033F00055FD824606E000BFFFF750FDA0EB0A0036
:1034000064284ED8DBF80000C005F5D5E068012837
:103410000AD008B1052813D0286A20F001002862DC
:10342000286A20F0040002E0286A40F001002862C7
:10343000E06841F2883B98B1FFF730FD82460BE02F
:10344000286A40F004002862EEE700BFFFF726FD7F
:10345000A0EB0A0159455AD8286A8007F6D50CE036
:10346000FFF71CFD824605E0FFF718FDA0EB0A01FF
:1034700059454CD8286A8007F6D41FB1E86920F076
:103480008050E861E06988B36968C1F3810102296D
:1034900044D00228C6F8608004D0FFF7FFFC044641
:1034A00038E034E0FFF7FAFC074604E0FFF7F6FCEB
:1034B000C01B02282BD828688001F7D4206AB0F5F9
:1034C000803F05D16868A16820F400300843686037
:1034D000D4E908010843696821F47411084368605D
:1034E000C6F86090FFF7DAFC044606E025E000BF6E
:1034F000FFF7D4FC001B022809D828688001F7D503
:103500001BE000BFFFF7CAFC001B022802D9032002
:10351000BDE8F88F28688001F4D40EE00128F7D0C8
:103520006868226A00F48031914204D1616A00F433
:103530007010884201D00120EAE70020E8E700008F
:103540000010024000004242800442421C00002061
:10355000007000407047704710B590F83C20012A79
:1035600022D0012280F83C20CA688C6822F4407284
:1035700022434C6822F4806222430C6822F40062E9
:1035800022430C6922F4805222434C6922F40052F7
:103590002243C969002322F480420A4301684A6435
:1035A00080F83C30002010BD022010BD70B590F8AE
:1035B0003C20012A26D0012480F83C40022280F8D9
:1035C0003D2003685A689D6822F070060A683243FD
:1035D0005A600D4B02689A4208D0B2F1804F05D074
:1035E0000A4B9A4202D00A4B9A4204D1496825F00C
:1035F00080031943916080F83D40002180F83C1021
:10360000084670BD022070BD002C0140000400403F
:103610000008004010B5040003D094F83D0010B13C
:1036200007E0012010BD002084F83C00204600F097
:103630001EF8022084F83D00211D206801F052FC94
:10364000012084F8460084F83E0084F83F0084F8A6
:10365000400084F8410084F8420084F8430084F874
:10366000440084F8450084F83D00002010BD7047F8
:1036700090F83D10012901D001207047022180F807
:103680003D100168CA6842F00102CA6000680B4937
:10369000884208D0B0F1804F05D00949884202D055
:1036A0000849884204D1816801F00701062903D046
:1036B000016841F00101016000207047002C0140C9
:1036C00000040040000800400168CA6822F00102BE
:1036D000CA6001680A6A41F211131A4207D10A6AE4
:1036E0009B101A4203D10A6822F001020A600121EC
:1036F00080F83D100020704770472DE9F0410446E6
:103700000068C66805694FF00007A90713D5B1071F
:1037100011D5F91E0161012020772068806980079A
:10372000204602D0FFF7E8FF04E000F0EFF8204663
:1037300000F0B8F92777680716D5700714D5216807
:103740006FF004000861022020772068806910F47F
:10375000407F204602D0FFF7CFFF04E000F0D6F80C
:10376000204600F09FF92777280715D5300713D595
:1037700021686FF008000861042020772068C06984
:103780008007204602D0FFF7B7FF04E000F0BEF844
:10379000204600F087F92777E80616D5F00614D5FD
:1037A00021686FF010000861082020772068C06948
:1037B00010F4407F204602D0FFF79EFF04E000F0A7
:1037C000A5F8204600F06EF92777E80708D0F00743
:1037D00006D021686FF001000861204600F0EAF988
:1037E000280608D5300606D521686FF080000861EC
:1037F0002046FFF7AFFE680608D5700606D521689B
:103800006FF040000861204600F0E2F9A8060AD5F2
:10381000B00608D521686FF0200008612046BDE899
:10382000F041FFF798BEBDE8F081000070B586B0AA
:103830000025009501950295039500682D4B2E49B2
:1038400002242E4A98420FD1886940F00400886112
:103850008869694600F0040004904FF41060CDE9D7
:103860000004104603942DE0254B264E98422DD19E
:10387000886940F004008861886900F004000490C1
:10388000886940F0080088618869694600F008008E
:1038900004908020CDE9000410460394FFF704FA59
:1038A000002201213046FFF7F4FA012202213046BE
:1038B000FFF7EFFA0320009001200394CDE9010502
:1038C000694614E0FFF7F0F906B070BD0E4A904269
:1038D000FAD1886940F0080088618869694600F07B
:1038E000080004904FF47070CDE900040394304652
:1038F000E8E70000002C01400010024000080140F1
:1039000000040040000C014000080040704770B502
:10391000044690F83C0000260D4601280FD00120F7
:1039200084F83C006AB1042A1DD0082A2FD00C2A42
:103930003FD00126002084F83C00304670BD0220B4
:1039400070BD206801F030FB2068816941F00801FA
:1039500081612068816921F00401816120688169A9
:103960002A69114311E0206801F046FB2068816953
:1039700041F4006181612068816921F48061816185
:10398000206881692A6941EA02218161D2E72068C1
:1039900001F05EFB2068C16941F00801C161206847
:1039A000C16921F00401C1612068C1692A6911431C
:1039B00011E0206801F078FB2068C16941F40061E2
:1039C000C1612068C16921F48061C1612068C16959
:1039D0002A6941EA0221C161ACE710B5040003D0B5
:1039E00094F83D0010B107E0012010BD002084F8DC
:1039F0003C00204600F01EF8022084F83D00211D06
:103A0000206801F06FFA012084F8460084F83E0037
:103A100084F83F0084F8400084F8410084F84200B4
:103A200084F8430084F8440084F8450084F83D009D
:103A3000002010BD08B5174A01681748914207D108
:103A4000816941F400618161806900F400601EE0D9
:103A5000124A914211D1C16941F00201C161C069AC
:103A6000002200F00200009006211D20FFF7B4FAAA
:103A7000BDE808401D20FFF7A1BA094A914207D1CD
:103A8000C16941F00401C161C06900F00400009007
:103A900008BD0000002C014000100240000400405E
:103AA000000800407047000010B50446022249B1EA
:103AB00004290ED0082913D094F84100012816D00B
:103AC000012010BD94F83E000128F9D184F83E2071
:103AD0000FE094F83F000128F2D184F83F2008E07D
:103AE00094F840000128EBD184F8402001E084F8EC
:103AF00041200122206801F031FA0F4920688842F4
:103B000003D1426C42F4004242642068884208D0EB
:103B1000B0F1804F05D00949884202D00849884257
:103B200004D1816801F00701062903D0016841F042
:103B300001010160002010BD002C01400004004084
:103B40000008004030B504460D460068002201F030
:103B500005FA174B41F2111120688A10984209D1D9
:103B6000036A0B4206D1036A134203D1436C23F468
:103B7000004343642068036A0B4206D1016A114284
:103B800003D1016821F00101016001203DB1042D44
:103B900008D0082D09D084F84100002030BD84F8F9
:103BA0003E00FAE784F83F00F7E784F84000F4E7C6
:103BB000002C01400068B0F1804F04D003498842D6
:103BC00003D100F085BFFFF76FB9704700040040D4
:103BD000704738B5044690F84200202801D00220F2
:103BE00038BD51B14AB101202063002060632046F6
:103BF00001F090FE216B012901D0012038BD216820
:103C00000A684968009121680C3151E8002F42F0A0
:103C1000100241E80023002BF5D138BD01F0CCBBE8
:103C200010B5044601F0A2FA2046BDE8104000F0AD
:103C3000E5BA0000F8B5016804460868CA684B692F
:103C400010F00F0F4FF0000559D003F0010602F4F9
:103C50009077374365D0C10705D0D10503D5616C96
:103C600041F001016164410705D5D90703D0616CBA
:103C700041F002016164810705D5D90703D0616C69
:103C800041F004016164010707D502F020013143CE
:103C900003D0616C41F008016164616C00293AD085
:103CA000800604D5900602D5204601F075FD2068F7
:103CB0004069616CC0F38010090700D460B32046EE
:103CC00001F035FD20684069400621D52068143098
:103CD00050E8001F21F0400140E80012002AF5D111
:103CE000E06BA8B16D494163E06BFEF781FE0028EF
:103CF00011D0E06B416B01B0BDE8F040084783068E
:103D00000FD593060DD52046BDE8F84001F044BD1F
:103D10002046FFF785FFF8BD2046FFF781FF656469
:103D2000F8BD266B2023012E7CD1C6067AD5D60697
:103D300078D508684868009048694FF00206400648
:103D400040D5E16B086840680004000CE8D0A28D03
:103D50008242E5D9E085886920282DD020680C3082
:103D600050E8001F21F4807140E80012002AF5D1CC
:103D70002068143050E8001F21F0010140E80012D3
:103D8000002AF5D12068143050E8001F21F04001CE
:103D900040E80012002AF5D184F8423025632068FB
:103DA0000C3050E8001F21F0100140E80012002AFA
:103DB000F5D1E06BFEF7F8FD6663A08DE18D401A4A
:103DC00081B22AE0A08DE18D401A81B2E08D0028F9
:103DD000A6D00029A4D022680C3252E8000F20F4AB
:103DE000907042E80007002FF5D12068143050E8A9
:103DF000002F22F0010240E80027002FF5D184F8BF
:103E00004230256320680C3050E8002F22F0100269
:103E100040E80023002BF5D166632046FFF7FEFE45
:103E2000F8BDFFE705062BD5150629D594F8410006
:103E30002128F5D1A068B0F5805F01D12069B0B12B
:103E4000206A411C2162216800784860E08C401E95
:103E50000004000CE084E3D12068C16821F08001F7
:103E6000C1602068C16841F04001C160D8E7206AA4
:103E70000088C0F308004860206A801C2062E5E7E3
:103E80004006CDD55006CBD5CA68204622F0400268
:103E9000CA6084F8413000F0A5F9C1E7E555000893
:103EA00070B5040004D094F84100002510B106E07C
:103EB000012070BD84F84050204600F023F82420F3
:103EC00084F841002068C16821F40051C160204697
:103ED00001F0C4FC2068016921F49041016120686F
:103EE000416921F02A0141612068C16841F4005113
:103EF000C1606564202084F8410084F84200656355
:103F0000002070BD2DE9F04786B000240094019494
:103F1000029403940546DFF82C82D0F800C08A484A
:103F200002210322894B102780264FF48069C44563
:103F300045D1D0F818C04CF4804CC0F818C0D0F867
:103F400018C00CF4804CCDF810C0D0F818C04CF05C
:103F5000040CC0F818C08069039200F004000490BB
:103F60000802CDE90001694698461846FEF79CFE16
:103F7000CDE90094694640460294FEF795FEDFF8CD
:103F8000D48173494046C0E90246C8F81040C8F8D9
:103F90001440C8F81840C8E90017C8F81C40FEF7DC
:103FA0001DFE08B1FEF7FEFCC5F838800022052191
:103FB0002520C8F82450FFF70FF8252062E0DFF82D
:103FC00098814FF0200AC44561D1D0F81CC04CF450
:103FD000003CC0F81CC0D0F81CC00CF4003CCDF86C
:103FE00010C0D0F818C04CF0040CC0F818C080699C
:103FF000039200F0040004900420CDE9000169461A
:1040000098461846FEF750FE0820CDE900046946A0
:1040100040460294FEF748FEDFF838814C4908F12B
:10402000880840463C31C0E90246C8F81040C8F84C
:104030001440C8F81840C8E90017C8F81C40FEF73B
:10404000CDFD08B1FEF7AEFC424F4148C5F83880BF
:1040500044372830C8F82450C7E90004C7E90246AD
:104060003C61C7E9054A3846FC61FEF7B7FD08B177
:10407000FEF798FCEF630022052126207D62FEF703
:10408000ABFF2620FEF79AFF06B0BDE8F087334B62
:104090009C45F9D1C36943F48023C361C36903F428
:1040A00080230493836943F0080383618069CDE929
:1040B000009100F00800CDE90320DFF8A4806946F4
:1040C0004046FEF7F1FD4FF40060CDE9000469467B
:1040D00040460294FEF7E8FDDFF878801C4908F1BD
:1040E000CC0840461439C0E90014C0E90246C8F8BB
:1040F0001040C8E9054AB146C8F81C40FEF76EFDFD
:1041000008B1FEF74FFC1248164EC5F83C8028381F
:10411000C8F824503060C6E90174C6E9039474619C
:10412000B4613046F461FEF759FD08B1FEF73AFC80
:10413000AE630022052127207562FEF74DFF272080
:10414000A0E70000003801400010024000080140D4
:1041500044000240B80200200044004000480040F3
:10416000000C0140C80300207047704770B504463A
:1041700090F84100202801D0022070BD49B342B31D
:104180002162A284E28400206064212384F841300B
:10419000A56B114BAB62A56B104BEB62A56B104B83
:1041A0002B63A36B5863256813462A1DA06BFEF78B
:1041B00043FD21686FF0400008602068143050E82B
:1041C000001F41F0800140E80012002AF5D10020D4
:1041D00070BD012070BD0000E3560008255700089F
:1041E000F555000810B5044601F0E8F92046BDE891
:1041F000104000F0BBB97047FEE7000070B5044600
:104200001648844228D1164D0120287020681430A9
:1042100050E8001F21F0800140E80012002AF5D18B
:1042200020680C3050E8001F21F0400140E80012E7
:10423000002AF5D1A06B08B1FEF7B6FB202084F868
:104240004100EFF3108072B60021697000B962B6C8
:10425000BDE8704000F066B870BD0000E0010020CD
:10426000A6000020EFF3108072B60021044A5180AE
:1042700091805170117000B962B602A000F013B8BD
:10428000A600002042415345204C4F47206973202F
:1042900072656164790D0A00401C80B2B0F5007F40
:1042A00000D3002070472DE9F041060014D0FCF740
:1042B00049F804464FF480374FF6FF780AE0BC42D5
:1042C00001D3454600E0A5B22946304600F060F92A
:1042D0002E44641B002CF2D1BDE8F0810FB430B540
:1042E000B1B00024349A002A15D035ABC0216846FD
:1042F000FCF70EF80A4D002801DA01200AE0C02878
:1043000001D3BF20012481B2684600F041F9002C9E
:1043100001D00220287031B030BC5DF814FB0000E1
:10432000A60000202DE9F0470026EFF3108572B6B5
:104330001D4C607818B96088A188884202D175B395
:10434000BDE8F08701206070A788DFF8608008F57D
:10435000007909E018F8071009F806103846FFF749
:104360009BFF761C0746B6B26088874201D0402E7C
:10437000F0D305B962B600255EB132460C490D484E
:10438000FFF7F4FE01002170EFF3108072B608D041
:1043900002E0EFF3108072B665700028D0D162B6EB
:1043A000CEE7A780F9E70000A6000020283900200A
:1043B000283B0020E00100202DE9F04F97B000F0ED
:1043C00029FC044600F02EFC009010AB0FAA0EA9A9
:1043D0000DA8FEF743FA614D20212846FEF754FD53
:1043E00001287DD05FF0000700F002FC824600F05B
:1043F00005FC814600F086FC159000F03FFC8346EA
:1044000000F04AFC139000F01BFC804600F012FC08
:10441000064600F0F9FB01460DF1200EC4F3C00C76
:10442000C4F38003C4F3400204F001008EE80D10D1
:10443000009ACDE904A7CDE90642159ADDF84CC0F3
:10444000CDE90229CDE900CB434632464448FFF787
:1044500045FF00F08BFA079000F0A0FA069000F0FC
:104460007FFA05904FF400412C462846FEF70CFDDC
:10447000012800D00020814608212046FEF704FDD7
:10448000012800D00020374D804602212846FEF743
:10449000FBFC012858D0002601212846FEF7F4FC39
:1044A000012853D05FF000054FF480412046FEF70D
:1044B000EBFC01284CD000274FF40051A2462046C7
:1044C000FEF7E2FC012845D05FF000044FF4805174
:1044D0005046FEF7D9FC012800D00020834600E0BA
:1044E00030E010211D48FEF7CFFC012800D000204D
:1044F000824620211948FEF7C7FC01282CD0002154
:104500009DF834000DF1240E9DF840C09DF83C301C
:104510009DF838208EE80D100DF1140C9CE80D006C
:104520000DF1180C8CE80D00CDE900470DF1080CD9
:104530005B468CE8600352460B48FFF7CFFE17B08E
:10454000BDE8F08F01274FE70126A5E70125ABE77E
:104550000127B1E70124B9E70121D1E7000C0140AF
:10456000FC740008000801407C7400080649884279
:1045700009D1EFF3108072B60021044A517000B9DE
:1045800062B6FFF7CFBE7047E0010020A600002012
:104590002DE9F0470F465FEA000823D0002F21D015
:1045A000EFF3108672B600250F4CDFF840900FE055
:1045B0006088FFF771FEA188884201D102200AE0DD
:1045C00018F80520638809F8032060806D1CADB2DF
:1045D000BD42EDD30020207006B962B6BDE8F047B9
:1045E000FFF7A0BEBDE8F087A60000202839002014
:1045F000194808B5416941F0010141614069002253
:1046000000F00100009006210C20FEF7E5FC0C20D4
:10461000FEF7D4FC002206210D20FEF7DDFC0D2064
:10462000FEF7CCFC002206210E20FEF7D5FC0E2062
:10463000FEF7C4FC002206211020FEF7CDFC10205E
:10464000FEF7BCFC002206211120FEF7C5FCBDE8E8
:1046500008401120FEF7B2BC0010024010B5FEF772
:104660000FF900F089F900F067FBFFF7FBFD00F0A0
:10467000AFFD0E4A00210E4801F034FA0D4C0B4AF2
:104680000021206024320C4801F02CFA074A6060B7
:1046900048320021094801F025FA044AA0606C3232
:1046A0000021074801F01EFAE06010BD9872000872
:1046B000911D000800000020751D0008811D0008E4
:1046C0009D1D00082DE9F04186B000252448009585
:1046D000019502950395816941F02001816181690D
:1046E00001F020010491816941F004018161816937
:1046F00001F004010491816941F00801816181693F
:1047000001F008010491816941F001018161806932
:10471000144F00F0010048F20304049000222146E7
:104720003846FEF7B6FBDFF840804FF2380600222D
:1047300031464046FEF7ADFB00940124CDE901452A
:10474000694638460394FEF7AFFA0096CDE9014575
:10475000694640460394FEF7A7FA06B0BDE8F0812B
:104760000010024000080140000C014010B58AB062
:1047700000240894202168460994FBF771FE1C4828
:104780001A4901604721C0E9011440F2E731C0E94C
:10479000031444618461FFF720F908B1FEF702F9C0
:1047A000089408A912480994FEF700FF08B1FEF723
:1047B000F9F800210E4800F0DEFB0C210C4800F057
:1047C000DAFB00944FF40050CDE9044002940194C8
:1047D0000394694606480794FEF7BEFE08B1FEF74B
:1047E000E1F80348FFF722F80AB010BD002C0140A1
:1047F000080100201CB500241248009410490194BF
:1048000001604721C0E9011440F2E731C0E9031417
:104810008461FFF7E2F808B1FEF7C4F80094694636
:1048200008480194FEF7C2FE08B1FEF7BBF8042168
:10483000044800F0A0FB0348FEF7F8FF1CBD000091
:1048400000040040500100201CB5002418480094CA
:104850001649019401604721C0E9011440F2F311A7
:10486000C0E903148461FFF7B8F808B1FEF79AF8BD
:10487000009469460E480194FEF798FE08B1FEF7D1
:1048800091F800210A4800F076FB0421084800F066
:1048900072FB0821064800F06EFB0C21044800F072
:1048A0006AFB0348FEF7C2FF1CBD00000008004081
:1048B000980100200C4810B50A4901604FF4E1311D
:1048C0004160002181600C22C160C0E90412816155
:1048D000C161FFF7E5FA002803D0BDE81040FEF7FC
:1048E00061B810BD00380140E00100200C4810B54F
:1048F0000A4901604FF416414160002181600C2299
:10490000C160C0E904128161C161FFF7C9FA0028E2
:1049100003D0BDE81040FEF745B810BD004400408C
:10492000280200200C4810B50A4901604FF4E1311B
:104930004160002181600C22C160C0E904128161E4
:10494000C161FFF7ADFA002803D0BDE81040FEF7C3
:1049500029B810BD0048004070020020FEE70000AA
:104960000148807970470000AC00002001480079C0
:1049700070470000AC00002010B5012000F0D6F810
:10498000054800210181017041708170C170017181
:1049900041718171C17110BDAC00002001480078E7
:1049A00070470000AC0000202DE9F047040001D062
:1049B000012C26D1344D2878DFF8D08000266FF006
:1049C000010910B3E87984421BD02889C0F1640042
:1049D00087B2002000F0AAF857B1012C13D00020B4
:1049E00000F060F8012000F053F8EC712F8132E004
:1049F000002000F04DF82E70EE706E70AE70AC714D
:104A0000EC71BDE8F0870120EAE729781E4801270C
:104A1000807909B9FF2802D0297811B108E02F71F7
:104A2000EFE7A04204D1BDE8F047002000F030B825
:104A3000002000F07BF8012C24D0002000F032F898
:104A4000012000F025F8EC71642028812F70EF70B0
:104A50006F703220A870D8F800104E62D8F800208D
:104A6000C2F81090D8F80C10D8F80000491C49087A
:104A7000816304210548FFF717F8BDE8F0470348B4
:104A8000FEF7F6BD0120D9E7AC0000205001002060
:104A900020B1002202210248FEF7FBB90122F9E70A
:104AA000000C014010B5040001D0012200E00022FA
:104AB00001210548FEF7EDF91CB1002003494871BA
:104AC00010BD0120FAE70000000C0140AC000020FE
:104AD00010B50C4C2078002812D0208900280FD067
:104AE0002089401E20812089002809D1012000F062
:104AF0001DF800202070E0706070A070E079A07157
:104B000010BD0000AC00002070B5074C25780120D6
:104B100000F00CF80020208120700DB1FF21A17160
:104B20006070A070E07070BDAC00002010B504464D
:104B30000A48FEF7C9FD04210848FFF703F80748B3
:104B400000210268916300684162002C04D0BDE836
:104B500010400020FFF79CBF10BD00005001002056
:104B60007047FEE710B54FF0E020006902F0AEF9A3
:104B7000012803D0BDE8104001F0DCBE10BD30B507
:104B80008FB028216846FBF76BFC14210AA8FBF7BD
:104B900067FC01210804CDE90010002402940225DD
:104BA0000491CDE907504FF4E01009906846FEF7F4
:104BB00041FB08B172B6FEE70F20CDE90A054FF4BC
:104BC0008060CDE90C4002210AA80E94FEF736FA67
:104BD000002801D072B6FEE70FB030BD704700006C
:104BE000024800218170C17070470000B8000020A9
:104BF0000148407B70470000B80000200148807CDD
:104C000070470000B800002001480079704700009C
:104C1000B80000200248807800F07F007047000054
:104C2000B80000200248C07800F07F007047000004
:104C3000B80000200148407970470000B80000200B
:104C40000148007870470000B800002010B5FEF75A
:104C500025F901460248006BBDE81040FDF791BA06
:104C6000B800002010B5FEF719F901460248406B64
:104C7000BDE81040FDF785BAB800002010B5FEF77A
:104C80000DF904498969401A4FF47A71B0FBF1F0CB
:104C900010BD0000B800002010B50C4C6078002852
:104CA00011D12078042803D3BDE8104000F010B8DB
:104CB000FEF7F4F8A169401A4FF47A71B0FBF1F0F5
:104CC000FF2801D9FF2010BDC0B210BDB8000020E0
:104CD00010B50B4C206A28B1FEF7E0F8216A081ADB
:104CE000002801DC002010BDFEF7D8F8216A081A60
:104CF0004EF65F210844491CB0FBF1F0C0B210BD74
:104D0000B800002010B50B4C206A28B1FEF7C6F899
:104D1000216A081A002801DC002010BDFEF7BEF849
:104D2000216A081A4FF47A7100F2E730B0FBF1F013
:104D300010BD0000B800002070B5134C0025257090
:104D40006570FEF7ABF8A061A570E570B120207129
:104D50006571A571E561256265622575E57125724C
:104D60006572A572A562E56225746574E572657564
:104D7000E574A575FEF792F8A063E575E563BDE8F7
:104D80007040FDF74DB80000B8000020F8B5FEF700
:104D900085F8494C00250646A570E570FFF7E6FD4D
:104DA00018B1E07840F00400E0703046FDF7D8FC20
:104DB000A07D424FC00704D00022B9143846FDF749
:104DC0000DFBA07D800705D500224FF40051384629
:104DD000FDF704FBA07D400705D500224FF480417C
:104DE0003846FDF7FBFA3046FDF7D4F8207BA0B13A
:104DF000A06A90B1301A10D4A562FDF74DFB0122D4
:104E000020213846FDF7EAFAA07B08B1012200E034
:104E1000002201212A48FDF7E1FA3046FDF7C4FCE3
:104E20003046FDF771FC3046FDF714FCE07D78B1AB
:104E3000FFF79CFD38B1E575E563A5720320FDF72A
:104E4000C3FA657004E0FFF7A9FD08B9FDF7D6F8CD
:104E5000206A80B1301A0ED4FDF74AFA10B1FCF77F
:104E6000A3FF08E0A07A4EF66022082817D0092890
:104E70001AD0FDF77DF9A07900281CD0E069301A1E
:104E8000C82818D9BFF34F8F0E4801680E4A01F4A5
:104E9000E06111430160BFF34F8F00BFFDE70123C5
:104EA0000C210B20009503E00C21012308460095FE
:104EB000FDF72AFBDFE7F8BDB8000020000C014039
:104EC000000801400CED00E00400FA050148FEF77F
:104ED00014BC00000C0400200148FEF70EBC0000CA
:104EE00050010020F0B50268194B1A4C1A4D4FF0D2
:104EF0008047984205D0B84203D0A04201D0A842D2
:104F000003D122F070064A683243984205D0B84275
:104F100003D0A04201D0A84203D122F44074CA6851
:104F200022434C6922F08002224302608A68C262F6
:104F30000A688262984201D10969016301214161D5
:104F40000169C90703D0016921F001010161F0BDC8
:104F5000002C0140000400400008004010B501F0A2
:104F60001F030121046A99408C430462016A9A403C
:104F70001143016210BD30B587B00C4605461C21B7
:104F80006846FBF76DFA00236020CDE90003029329
:104F90002246694628460493FEF7B9FC002801D052
:104FA000FDF700FD07B030BD30B5036A026A22F09C
:104FB000010202624268846924F073050C682C4384
:104FC00023F002058B682B430A4DA8420BD123F036
:104FD0000805CB6822F440722B434D6923F004038B
:104FE00015438A692A4342608461496841630362C8
:104FF00030BD0000002C014030B5026A036A23F086
:1050000010030362436884690D6824F4E64444EAAB
:1050100005248D6822F0200242EA05120B4DA842B9
:105020000ED1CD6822F0800242EA05124D6923F4C8
:10503000406343EA85038D6922F0400243EA850319
:105040004360846149688163026230BD002C014085
:1050500030B5036A026A22F4807202624268C4694F
:1050600023F4007324F073050C682C438D6843EA25
:1050700005230C4DA8420ED1CD6823F4006343EA0A
:1050800005234D6922F4405242EA05128D6923F44A
:10509000806342EA05124260C4614968C1630362E9
:1050A00030BD0000002C014030B5046A026A22F4D1
:1050B000805202624268C3690D6823F4E64343EA02
:1050C00005238D6824F4005444EA0534064DA842B3
:1050D00004D14D6922F4804242EA85124260C361E4
:1050E00049680164046230BD002C014010B5040021
:1050F00028D01E21FBF792F955202070AA2060705D
:1051000011480078A070FFF77FFDE070FDF702F90D
:1051100060B10E4850F8091FC4F805104168C4F882
:1051200009100189A4F80D10807AE0732046FCF77D
:10513000EBFEFDF7E9F82077204600F009F86077EC
:105140001E2010BD002010BDF8000020E83C00200B
:105150000022002808D00221435C491C1A44C9B22D
:1051600092B21C29F8D9D0B27047000070B5144D26
:105170000446A84206D1284600F065F9114A1249B2
:10518000284609E01148844208D100F05CF90D4A34
:105190000D49921C80310D4800F042F9AC420DD10E
:1051A00094F84100202809D107490020443981F8AA
:1051B0004000BDE87040084600F0C4B970BD000072
:1051C00070020020FA000020EC3B002028020020A2
:1051D00010B51F211948FBF743F918481F211F304C
:1051E000FBF71CF9154844214030FBF739F9134807
:1051F00080218430FBF734F980211148FBF730F926
:105200000F481E218030FBF72BF90C490D48403127
:10521000022208600C4800218160C1600270417068
:105220000749821C8039074800F0FAF8064ABDE8B1
:105230001040121D0249054800F0F2B8683B0020FA
:105240006C3C002070020020F800002028020020A2
:1052500010B5040010D0207855280DD16078AA2808
:105260000AD1A078022807D12046FFF771FF617F9D
:10527000884201D1012010BD002010BD2DE9F04170
:105280000D46040018D0002D16D0A07F0126A8B12D
:105290000027012817D0411CA1772254A07F1E2887
:1052A0000AD32046FFF7D4FF28B11E222146284604
:1052B000FBF767F8AE77A777BDE8F081552AFBD1F9
:1052C000A6772270F8E7AA2AF5D10220A0776270AB
:1052D000F2E7000070B5040020D001461E221048FD
:1052E000FBF74FF8FDF7DAFD0E4DA860002068705F
:1052F0000120FDF715F8A0782870E078A0F1B00142
:105300000F2904D82046BDE87040FCF77BBF002879
:1053100004D12046BDE87040FDF7C4B970BD00005F
:10532000EC3C0020F800002070B50D460446074E06
:1053300008E00649325D6539A1F11F00FFF79EFFC5
:10534000641CA4B2AC42F4D370BD0000EC3B00205E
:1053500070B514460D001DD0802C1BD82A88A2429F
:1053600018D004D200282146104609D10FE00028A9
:105370004FF08001104606D0FFF7D6FF21460020EF
:10538000FFF7D2FF05E000F007F82146002000F00B
:1053900003F82C8070BD000070B50D460446054E24
:1053A00004E0305DFDF700F8641CA4B2AC42F8D311
:1053B00070BD00006C3C0020084A904203D10A46B0
:1053C0000749012006E0074A904205D10A460449F0
:1053D000891C0020FFF7BCBF70470000700200204E
:1053E000FA0000202802002010B5002814D0EFF3A6
:1053F000108472B61E2201460848FAF7C2FF074918
:105400000120223981F8410004B962B60348BDE8A1
:105410001040223800F096B810BD0000CA3B0020B2
:1054200010B504460020108080222046FEF7D1FBF4
:10543000002807D1E16B002904D009680A6822F02E
:1054400004020A6010BD10B5040026D02068143094
:1054500050E8001F21F0400140E80012002AF5D179
:10546000E06B08B1FDF7A0FA20680C3050E8001F8F
:1054700021F4887140E80012002AF5D12068143028
:1054800050E8001F21F0010140E80012002AF5D188
:10549000202084F842000020206310BD70B588B041
:1054A000204D6846EFF3108472B6AE7F2EB11E22F7
:1054B0002946FAF766FF0020A87704B962B646B11C
:1054C0006846FFF707FF6846FFF710FE6846FFF7DC
:1054D0008BFFFDF7E3FC144C0546A16851B1681A37
:1054E00041F2883188420ED30020FCF719FF607822
:1054F00020B108E00020FCF713FF04E001206070F9
:105500000AA0FEF7D0FEE068281AB0F57A7F06D32D
:105510006846E560FFF7EAFD6846FFF765FF08B0FB
:1055200070BD0000873B0020F80000204275636BCF
:105530006574206C696E6B2074696D656F75740D90
:105540000A0000002DE9F04104004FF0000033D0C4
:105550002168002930D0EFF3108572B694F840200E
:10556000002604F12208012762B994F8411049B1DC
:105570001E224146201DFAF704FF84F8416084F89A
:105580004070012005B962B6002815D01E22211DE9
:105590002068FEF7EBFD00280ED0EFF3108572B601
:1055A0001E22211D4046FAF7ECFE84F8417084F873
:1055B0004060002D00D162B6BDE8F0810749884205
:1055C0000BD1EFF3108072B60021054A82F840102B
:1055D00000B962B60248FFF7B5BF704770020020FD
:1055E000A83B002010B5406A0021C185C184FEF7A8
:1055F00017FB10BD70B5446A2068406994F84110EB
:10560000C0F3C0100025212904D118B1E58420463B
:1056100000F0B4F82068406994F84210C0F380109C
:10562000222904D118B1E585204600F080F8606C8D
:1056300040F0100060642046FEF7F2FA70BD10B52D
:105640000146406A096809684FF0000289062ED4B5
:10565000C28501680C3151E8003F23F4807341E8B2
:105660000034002CF5D10168143151E8003F23F0DB
:10567000010341E80034002CF5D10168143151E8F0
:10568000003F23F0400341E80034002CF5D12021F5
:1056900080F84210016B012909D101680C3151E8F1
:1056A000003F23F0100341E80034002CF5D14263A1
:1056B000016B012902D0FEF757FD10BD818DFEF769
:1056C000ADFA10BD10B5406A01214163016B01299B
:1056D00002D0FEF74AFD10BD818D4908FEF79EFA03
:1056E00010BD10B50146406A09680968890616D4DC
:1056F0000021C1840168143151E8002F22F080029A
:1057000041E80023002BF5D101680C3151E8002F4E
:1057100042F0400241E80023002BF5D110BDFEF716
:1057200061FD10BD10B5406AFEF765FD10BD016852
:105730000C3151E8002F22F4907241E80023002B35
:10574000F5D10168143151E8002F22F0010241E83F
:105750000023002BF5D1016B012909D101680C311F
:1057600051E8002F22F0100241E80023002BF5D170
:10577000202180F8421000210163704701680C313C
:1057800051E8002F22F0C00241E80023002BF5D1A0
:10579000202180F84110704708B590F84210222966
:1057A00001D0022008BD82684FF480539A4201D193
:1057B000016921B1816A9A421BD04AB10AE00268AC
:1057C000816A5268C2F308020A80816A891C08E073
:1057D000026972B10268526802F07F020A70816A3F
:1057E000491C8162C18D491E0904090CC18503D081
:1057F0001BE002685268F1E70168CA6822F02002E3
:10580000CA600168CA6822F48072CA6001684A6985
:1058100022F001024A61202180F8421000214163F8
:10582000026B012A03D0FEF79FFC002008BD016334
:1058300001680C3151E8002F22F0100241E80023EA
:10584000002BF5D101680A68D20602D50A684968BA
:105850000091818DFEF7E2F9E7E7000070B504469C
:1058600000680169E26821F4405111430161216936
:10587000A0680843616908432168CA6841F20C6363
:105880009A430243CA6020684169A26921F44071C9
:10589000114341611E492068884202D1FDF794FC02
:1058A00001E0FDF781FC00EBC00101EB0012606834
:1058B00064218000B2FBF0F3B3FBF1F36FF0180644
:1058C0007343B2FBF0F5B2FBF0F605EB8305322330
:1058D00003EB0515B5FBF1F5B6FBF1F605F0F005A8
:1058E00005EB0615B2FBF0F6B2FBF0F0B0FBF1F001
:1058F0006FF01802504306EB800003EB0010B0FB82
:10590000F1F0216800F00F002844886070BD0000AD
:105910000038014038B58162044682850020134674
:105920006064222284F84220E56B1B4AAA62E56B80
:105930001A4AEA62E56B1A4A2A63E26B50630A4626
:105940002168E06B091DFDF777F920680168406860
:105950000090206948B120680C3050E8001F41F4E5
:10596000807140E80012002AF5D12068143050E818
:10597000001F41F0010140E80012002AF5D1206823
:10598000143050E8001F41F0400140E80012002AA6
:10599000F5D1002038BD00003F560008C55600086C
:1059A000F55500080148FEF745B90000E001002068
:1059B0000148FEF73FB90000280200200148FEF729
:1059C00039B9000070020020FEE7490050EAC1200A
:1059D00018BF04204A0D18BF40F0010040F2FF72CA
:1059E000B2EB515F08BF40F00200012808BF05205C
:1059F00070470907090E002804DB00F1E02080F859
:105A00000014704700F00F0000F1E02080F8141D32
:105A1000704730380A2801D20120704700207047B3
:105A200070470000FDF748FA0F48416821F0E06137
:105A300041F000714160FFF7A2F8FEF743FEFEF768
:105A4000D7FDFEF737FFFEF751FFFEF76BFFFEF7BE
:105A5000D1FEFEF7F9FEFEF789FE00F015F8FEF71D
:105A6000FDFD00F023F8FEE70000014010B5EFF364
:105A7000058111B16FF0050403E0002408B100F0C6
:105A80000BFE204610BD0000EFF3058010B16FF053
:105A9000050070470448016811B14FF0FF307047AE
:105AA00001210160002070477000002010B5EFF365
:105AB000058010B16FF0050010BD0848016801298C
:105AC00002D04FF0FF3010BD054A002182F8141DAE
:105AD0000221016000F048FE002010BD700000208F
